{
  "contractName": "DiceDataStore",
  "abi": [
    {
      "constant": true,
      "inputs": [],
      "name": "roundCount",
      "outputs": [
        {
          "name": "",
          "type": "uint256"
        }
      ],
      "payable": false,
      "stateMutability": "view",
      "type": "function"
    },
    {
      "constant": true,
      "inputs": [
        {
          "name": "",
          "type": "uint256"
        }
      ],
      "name": "RoundSet",
      "outputs": [
        {
          "name": "playerCount",
          "type": "uint256"
        },
        {
          "name": "startTime",
          "type": "uint256"
        },
        {
          "name": "winCount",
          "type": "uint256"
        },
        {
          "name": "winDiceNum",
          "type": "uint8"
        },
        {
          "name": "is_activate",
          "type": "bool"
        }
      ],
      "payable": false,
      "stateMutability": "view",
      "type": "function"
    },
    {
      "anonymous": false,
      "inputs": [
        {
          "indexed": true,
          "name": "player",
          "type": "address"
        },
        {
          "indexed": false,
          "name": "roundNum",
          "type": "uint256"
        },
        {
          "indexed": false,
          "name": "joinTime",
          "type": "uint256"
        },
        {
          "indexed": false,
          "name": "ticketVol",
          "type": "uint256"
        }
      ],
      "name": "JoinEvent",
      "type": "event"
    },
    {
      "anonymous": false,
      "inputs": [
        {
          "indexed": true,
          "name": "player",
          "type": "address"
        },
        {
          "indexed": false,
          "name": "roundNum",
          "type": "uint256"
        },
        {
          "indexed": false,
          "name": "winCount",
          "type": "uint256"
        },
        {
          "indexed": false,
          "name": "diceSeries",
          "type": "uint256"
        },
        {
          "indexed": false,
          "name": "payout",
          "type": "uint256"
        },
        {
          "indexed": false,
          "name": "winDiceNum",
          "type": "uint8"
        }
      ],
      "name": "ResultEvent",
      "type": "event"
    }
  ],
  "bytecode": "0x608060405234801561001057600080fd5b50610165806100206000396000f30060806040526004361061004c576000357c0100000000000000000000000000000000000000000000000000000000900463ffffffff168063127f0b3f14610051578063917d6acb1461007c575b600080fd5b34801561005d57600080fd5b506100666100e3565b6040518082815260200191505060405180910390f35b34801561008857600080fd5b506100a7600480360381019080803590602001909291905050506100e9565b604051808681526020018581526020018481526020018360ff1660ff168152602001821515151581526020019550505050505060405180910390f35b60015481565b60006020528060005260406000206000915090508060010154908060020154908060030154908060040160009054906101000a900460ff16908060040160019054906101000a900460ff169050855600a165627a7a7230582016de4537b6573f9db84726b17ab001d47e1f8851ef343463a1f500b805e610700029",
  "source": "pragma solidity ^0.4.24;\ncontract DiceDataStore {\n    //每期的参与者情况\n    struct PalyerBetInfo {\n        address player;//参与者地址\n        uint256 joinTime;//加入时间\n        uint256 ticketVol;//份数            \n        uint256 winCount;//胜出的数量\n        mapping(uint256=>int8) resultSet;//每个骰子的点数\n    }\n\n    //每期的情况\n    struct RoundInfo {\n        mapping(uint256=>PalyerBetInfo) playerBetInfoSet;//每期包括的参与者\n        uint256 playerCount;//参与者数量\n        uint256 startTime;//开始时间\n        uint256 winCount;//获胜者数量\n        uint8 winDiceNum;//骰子最大的点数\n        bool is_activate;//是否可用的\n    }\n\n    //总表\n    mapping(uint256 => RoundInfo) public RoundSet; \n    uint256 public roundCount;//一共开了多少轮\n\n\n    //使用事件记录每个玩家参与过的期数,或通知前端加入成功\n    event JoinEvent(\n        address indexed player,//参与者地址\n        uint256 roundNum,//参与第几期\n        uint256 joinTime,//加入时间\n        uint256 ticketVol//份数            \n    );\n\n    //结果通知\n    event ResultEvent(\n        address indexed player,//参与者地址\n        uint256 roundNum,//参与第几期\n        uint256 winCount,//多少个赢了\n        uint256 diceSeries,//骰子的随机序列\n        uint256 payout,//支付额\n        uint8 winDiceNum //获胜骰子最大的点数\n    );\n\n}\n",
  "sourcePath": "/usr/local/ShareDice/contracts/DiceDataStore.sol",
  "compiler": {
    "name": "solc",
    "version": "0.4.24+commit.e67f0147.Emscripten.clang"
  },
  "schemaVersion": "2.0.1",
  "updatedAt": "2018-09-11T05:28:43.391Z"
}