{
  "contractName": "Dice2Win",
  "abi": [
    {
      "constant": true,
      "inputs": [],
      "name": "secretSigner",
      "outputs": [
        {
          "name": "",
          "type": "address"
        }
      ],
      "payable": false,
      "stateMutability": "view",
      "type": "function"
    },
    {
      "constant": true,
      "inputs": [],
      "name": "jackpotSize",
      "outputs": [
        {
          "name": "",
          "type": "uint128"
        }
      ],
      "payable": false,
      "stateMutability": "view",
      "type": "function"
    },
    {
      "constant": true,
      "inputs": [],
      "name": "owner",
      "outputs": [
        {
          "name": "",
          "type": "address"
        }
      ],
      "payable": false,
      "stateMutability": "view",
      "type": "function"
    },
    {
      "constant": true,
      "inputs": [],
      "name": "maxProfit",
      "outputs": [
        {
          "name": "",
          "type": "uint256"
        }
      ],
      "payable": false,
      "stateMutability": "view",
      "type": "function"
    },
    {
      "constant": true,
      "inputs": [],
      "name": "lockedInBets",
      "outputs": [
        {
          "name": "",
          "type": "uint128"
        }
      ],
      "payable": false,
      "stateMutability": "view",
      "type": "function"
    },
    {
      "inputs": [],
      "payable": false,
      "stateMutability": "nonpayable",
      "type": "constructor"
    },
    {
      "payable": true,
      "stateMutability": "payable",
      "type": "fallback"
    },
    {
      "anonymous": false,
      "inputs": [
        {
          "indexed": true,
          "name": "beneficiary",
          "type": "address"
        },
        {
          "indexed": false,
          "name": "amount",
          "type": "uint256"
        }
      ],
      "name": "FailedPayment",
      "type": "event"
    },
    {
      "anonymous": false,
      "inputs": [
        {
          "indexed": true,
          "name": "beneficiary",
          "type": "address"
        },
        {
          "indexed": false,
          "name": "amount",
          "type": "uint256"
        }
      ],
      "name": "Payment",
      "type": "event"
    },
    {
      "anonymous": false,
      "inputs": [
        {
          "indexed": true,
          "name": "beneficiary",
          "type": "address"
        },
        {
          "indexed": false,
          "name": "amount",
          "type": "uint256"
        }
      ],
      "name": "JackpotPayment",
      "type": "event"
    },
    {
      "constant": false,
      "inputs": [
        {
          "name": "_nextOwner",
          "type": "address"
        }
      ],
      "name": "approveNextOwner",
      "outputs": [],
      "payable": false,
      "stateMutability": "nonpayable",
      "type": "function"
    },
    {
      "constant": false,
      "inputs": [],
      "name": "acceptNextOwner",
      "outputs": [],
      "payable": false,
      "stateMutability": "nonpayable",
      "type": "function"
    },
    {
      "constant": false,
      "inputs": [
        {
          "name": "newSecretSigner",
          "type": "address"
        }
      ],
      "name": "setSecretSigner",
      "outputs": [],
      "payable": false,
      "stateMutability": "nonpayable",
      "type": "function"
    },
    {
      "constant": false,
      "inputs": [
        {
          "name": "_maxProfit",
          "type": "uint256"
        }
      ],
      "name": "setMaxProfit",
      "outputs": [],
      "payable": false,
      "stateMutability": "nonpayable",
      "type": "function"
    },
    {
      "constant": false,
      "inputs": [
        {
          "name": "increaseAmount",
          "type": "uint256"
        }
      ],
      "name": "increaseJackpot",
      "outputs": [],
      "payable": false,
      "stateMutability": "nonpayable",
      "type": "function"
    },
    {
      "constant": false,
      "inputs": [
        {
          "name": "beneficiary",
          "type": "address"
        },
        {
          "name": "withdrawAmount",
          "type": "uint256"
        }
      ],
      "name": "withdrawFunds",
      "outputs": [],
      "payable": false,
      "stateMutability": "nonpayable",
      "type": "function"
    },
    {
      "constant": false,
      "inputs": [],
      "name": "kill",
      "outputs": [],
      "payable": false,
      "stateMutability": "nonpayable",
      "type": "function"
    },
    {
      "constant": false,
      "inputs": [
        {
          "name": "betMask",
          "type": "uint256"
        },
        {
          "name": "modulo",
          "type": "uint256"
        },
        {
          "name": "commitLastBlock",
          "type": "uint256"
        },
        {
          "name": "commit",
          "type": "uint256"
        },
        {
          "name": "r",
          "type": "bytes32"
        },
        {
          "name": "s",
          "type": "bytes32"
        }
      ],
      "name": "placeBet",
      "outputs": [],
      "payable": true,
      "stateMutability": "payable",
      "type": "function"
    },
    {
      "constant": false,
      "inputs": [
        {
          "name": "reveal",
          "type": "uint256"
        },
        {
          "name": "cleanCommit",
          "type": "uint256"
        }
      ],
      "name": "settleBet",
      "outputs": [],
      "payable": false,
      "stateMutability": "nonpayable",
      "type": "function"
    },
    {
      "constant": false,
      "inputs": [
        {
          "name": "commit",
          "type": "uint256"
        }
      ],
      "name": "refundBet",
      "outputs": [],
      "payable": false,
      "stateMutability": "nonpayable",
      "type": "function"
    },
    {
      "constant": false,
      "inputs": [
        {
          "name": "cleanCommits",
          "type": "uint256[]"
        }
      ],
      "name": "clearStorage",
      "outputs": [],
      "payable": false,
      "stateMutability": "nonpayable",
      "type": "function"
    }
  ],
  "bytecode": "0x608060405234801561001057600080fd5b50336000806101000a81548173ffffffffffffffffffffffffffffffffffffffff021916908373ffffffffffffffffffffffffffffffffffffffff16021790555073eeeeeeeeeeeeeeeeeeeeeeeeeeeeeeeeeeeeeeee600360006101000a81548173ffffffffffffffffffffffffffffffffffffffff021916908373ffffffffffffffffffffffffffffffffffffffff160217905550612885806100b56000396000f3006080604052600436106100e6576000357c0100000000000000000000000000000000000000000000000000000000900463ffffffff1680630d2cbe13146100e857806341c0e1b51461011f5780634d61537f1461013657806357246d231461018d5780635e83b463146101dc5780638da5cb5b14610236578063b539cd551461028d578063c1075329146102b8578063d06c54fb14610305578063d579fd441461031c578063d6d30a511461035f578063d702087f1461038c578063df88126f146103cf578063e1fdb4b41461041e578063ef1155421461044b578063fbd668a914610486575b005b3480156100f457600080fd5b5061011d60048036038101908080359060200190929190803590602001909291905050506104b3565b005b34801561012b57600080fd5b50610134610a77565b005b34801561014257600080fd5b5061014b610c8f565b604051808273ffffffffffffffffffffffffffffffffffffffff1673ffffffffffffffffffffffffffffffffffffffff16815260200191505060405180910390f35b34801561019957600080fd5b506101a2610cb5565b60405180826fffffffffffffffffffffffffffffffff166fffffffffffffffffffffffffffffffff16815260200191505060405180910390f35b6102346004803603810190808035906020019092919080359060200190929190803590602001909291908035906020019092919080356000191690602001909291908035600019169060200190929190505050610cd7565b005b34801561024257600080fd5b5061024b611609565b604051808273ffffffffffffffffffffffffffffffffffffffff1673ffffffffffffffffffffffffffffffffffffffff16815260200191505060405180910390f35b34801561029957600080fd5b506102a261162e565b6040518082815260200191505060405180910390f35b3480156102c457600080fd5b50610303600480360381019080803573ffffffffffffffffffffffffffffffffffffffff16906020019092919080359060200190929190505050611634565b005b34801561031157600080fd5b5061031a6118c3565b005b34801561032857600080fd5b5061035d600480360381019080803573ffffffffffffffffffffffffffffffffffffffff169060200190929190505050611a12565b005b34801561036b57600080fd5b5061038a60048036038101908080359060200190929190505050611c05565b005b34801561039857600080fd5b506103cd600480360381019080803573ffffffffffffffffffffffffffffffffffffffff169060200190929190505050611ee2565b005b3480156103db57600080fd5b506103e4612010565b60405180826fffffffffffffffffffffffffffffffff166fffffffffffffffffffffffffffffffff16815260200191505060405180910390f35b34801561042a57600080fd5b5061044960048036038101908080359060200190929190505050612032565b005b34801561045757600080fd5b506104846004803603810190808035906020019082018035906020019190919293919293905050506122de565b005b34801561049257600080fd5b506104b160048036038101908080359060200190929190505050612324565b005b6000806000806000806000806000806000806000808f604051602001808281526020019150506040516020818303038152906040526040518082805190602001908083835b60208310151561051d57805182526020820191506020810190506020830392506104f8565b6001836020036101000a0380198251168184511680821785525050505050509050019150506040518091039020600190049d50600560008f81526020019081526020016000209c508c600001549b508c60010160009054906101000a900460ff1660ff169a508c60010160019054906101000a900460ff1660ff1699508c60010160029054906101000a900464ffffffffff1664ffffffffff1698508c600101600c9054906101000a900473ffffffffffffffffffffffffffffffffffffffff16975060008c1415151561067f576040517f08c379a00000000000000000000000000000000000000000000000000000000081526004018080602001828103825260228152602001807f4265742073686f756c6420626520696e20616e2027616374697665272073746181526020017f746500000000000000000000000000000000000000000000000000000000000081525060400191505060405180910390fd5b884311151561071c576040517f08c379a00000000000000000000000000000000000000000000000000000000081526004018080602001828103825260338152602001807f736574746c6542657420696e207468652073616d6520626c6f636b206173207081526020017f6c6163654265742c206f72206265666f72652e0000000000000000000000000081525060400191505060405180910390fd5b60fa890143111515156107bd576040517f08c379a00000000000000000000000000000000000000000000000000000000081526004018080602001828103825260228152602001807f426c6f636b686173682063616e2774206265207175657269656420627920455681526020017f4d2e00000000000000000000000000000000000000000000000000000000000081525060400191505060405180910390fd5b60008d600001819055508f8940604051602001808381526020018260001916600019168152602001925050506040516020818303038152906040526040518082805190602001908083835b60208310151561082d5780518252602082019150602081019050602083039250610808565b6001836020036101000a038019825116818451168082178552505050505050905001915050604051809103902096508a876001900481151561086b57fe5b0695506108798c8c8c6124bf565b8095508196505050600092506000915060288b1115156108c75760008d60010160079054906101000a900464ffffffffff1664ffffffffff168760020a161415156108c2578492505b6108d4565b898610156108d3578492505b5b84600460108282829054906101000a90046fffffffffffffffffffffffffffffffff160392506101000a8154816fffffffffffffffffffffffffffffffff02191690836fffffffffffffffffffffffffffffffff16021790555067016345785d8a00008c1015156109d6576103e88b886001900481151561095157fe5b0481151561095b57fe5b06905060008114156109d557600460009054906101000a90046fffffffffffffffffffffffffffffffff166fffffffffffffffffffffffffffffffff1691506000600460006101000a8154816fffffffffffffffffffffffffffffffff02191690836fffffffffffffffffffffffffffffffff1602179055505b5b6000821115610a2e578773ffffffffffffffffffffffffffffffffffffffff167fc388db0e8aa560a59633c094a0d0aa21322cd6234836fd5bac00fc5ae63b5783836040518082815260200191505060405180910390a25b610a4d88600084860114610a4457838501610a47565b60015b85612653565b60008f1415610a5b57610a65565b610a648f612734565b5b50505050505050505050505050505050565b6000809054906101000a900473ffffffffffffffffffffffffffffffffffffffff1673ffffffffffffffffffffffffffffffffffffffff163373ffffffffffffffffffffffffffffffffffffffff16141515610b61576040517f08c379a00000000000000000000000000000000000000000000000000000000081526004018080602001828103825260268152602001807f4f6e6c794f776e6572206d6574686f64732063616c6c6564206279206e6f6e2d81526020017f6f776e65722e000000000000000000000000000000000000000000000000000081525060400191505060405180910390fd5b6000600460109054906101000a90046fffffffffffffffffffffffffffffffff166fffffffffffffffffffffffffffffffff16141515610c55576040517f08c379a00000000000000000000000000000000000000000000000000000000081526004018080602001828103825260488152602001807f416c6c20626574732073686f756c642062652070726f6365737365642028736581526020017f74746c6564206f7220726566756e64656429206265666f72652073656c662d6481526020017f657374727563742e00000000000000000000000000000000000000000000000081525060600191505060405180910390fd5b6000809054906101000a900473ffffffffffffffffffffffffffffffffffffffff1673ffffffffffffffffffffffffffffffffffffffff16ff5b600360009054906101000a900473ffffffffffffffffffffffffffffffffffffffff1681565b600460009054906101000a90046fffffffffffffffffffffffffffffffff1681565b6000806000806000806000600560008b81526020019081526020016000209650600073ffffffffffffffffffffffffffffffffffffffff1687600101600c9054906101000a900473ffffffffffffffffffffffffffffffffffffffff1673ffffffffffffffffffffffffffffffffffffffff16141515610de5576040517f08c379a00000000000000000000000000000000000000000000000000000000081526004018080602001828103825260218152602001807f4265742073686f756c6420626520696e20612027636c65616e2720737461746581526020017f2e0000000000000000000000000000000000000000000000000000000000000081525060400191505060405180910390fd5b34955060018c118015610df9575060648c11155b1515610e6d576040517f08c379a000000000000000000000000000000000000000000000000000000000815260040180806020018281038252601e8152602001807f4d6f64756c6f2073686f756c642062652077697468696e2072616e67652e000081525060200191505060405180910390fd5b662386f26fc100008610158015610e8e5750693f870857a3e0e38000008611155b1515610f02576040517f08c379a000000000000000000000000000000000000000000000000000000000815260040180806020018281038252601e8152602001807f416d6f756e742073686f756c642062652077697468696e2072616e67652e000081525060200191505060405180910390fd5b60008d118015610f155750602860020a8d105b1515610f89576040517f08c379a000000000000000000000000000000000000000000000000000000000815260040180806020018281038252601c8152602001807f4d61736b2073686f756c642062652077697468696e2072616e67652e0000000081525060200191505060405180910390fd5b8a4311151515611001576040517f08c379a00000000000000000000000000000000000000000000000000000000081526004018080602001828103825260138152602001807f436f6d6d69742068617320657870697265642e0000000000000000000000000081525060200191505060405180910390fd5b8a8a604051602001808364ffffffffff1664ffffffffff167b01000000000000000000000000000000000000000000000000000000028152600501828152602001925050506040516020818303038152906040526040518082805190602001908083835b60208310151561108a5780518252602082019150602081019050602083039250611065565b6001836020036101000a03801982511681845116808217855250505050505090500191505060405180910390209450600185601b8b8b604051600081526020016040526040518085600019166000191681526020018460ff1681526020018360001916600019168152602001826000191660001916815260200194505050505060206040516020810390808403906000865af115801561112e573d6000803e3d6000fd5b5050506020604051035173ffffffffffffffffffffffffffffffffffffffff16600360009054906101000a900473ffffffffffffffffffffffffffffffffffffffff1673ffffffffffffffffffffffffffffffffffffffff161415156111fc576040517f08c379a000000000000000000000000000000000000000000000000000000000815260040180806020018281038252601d8152602001807f4543445341207369676e6174757265206973206e6f742076616c69642e00000081525060200191505060405180910390fd5b60288c11151561125a57603f7e010410410410410410410410410410410410410410410410410410410410417920000000001000000000080000000004000000000200000000018f021681151561124f57fe5b0693508c9250611308565b60008d11801561126a57508b8d11155b1515611304576040517f08c379a000000000000000000000000000000000000000000000000000000000815260040180806020018281038252602e8152602001807f48696768206d6f64756c6f2072616e67652c206265744d61736b206c6172676581526020017f72207468616e206d6f64756c6f2e00000000000000000000000000000000000081525060400191505060405180910390fd5b8c93505b611313868d866124bf565b809250819350505060025486018211151515611397576040517f08c379a000000000000000000000000000000000000000000000000000000000815260040180806020018281038252601a8152602001807f6d617850726f666974206c696d69742076696f6c6174696f6e2e00000000000081525060200191505060405180910390fd5b81600460108282829054906101000a90046fffffffffffffffffffffffffffffffff160192506101000a8154816fffffffffffffffffffffffffffffffff02191690836fffffffffffffffffffffffffffffffff16021790555080600460008282829054906101000a90046fffffffffffffffffffffffffffffffff160192506101000a8154816fffffffffffffffffffffffffffffffff02191690836fffffffffffffffffffffffffffffffff1602179055503073ffffffffffffffffffffffffffffffffffffffff1631600460109054906101000a90046fffffffffffffffffffffffffffffffff16600460009054906101000a90046fffffffffffffffffffffffffffffffff16016fffffffffffffffffffffffffffffffff161115151561152a576040517f08c379a000000000000000000000000000000000000000000000000000000000815260040180806020018281038252601f8152602001807f43616e6e6f74206166666f726420746f206c6f73652074686973206265742e0081525060200191505060405180910390fd5b8587600001819055508b8760010160006101000a81548160ff021916908360ff160217905550838760010160016101000a81548160ff021916908360ff160217905550438760010160026101000a81548164ffffffffff021916908364ffffffffff160217905550828760010160076101000a81548164ffffffffff021916908364ffffffffff1602179055503387600101600c6101000a81548173ffffffffffffffffffffffffffffffffffffffff021916908373ffffffffffffffffffffffffffffffffffffffff16021790555050505050505050505050505050565b6000809054906101000a900473ffffffffffffffffffffffffffffffffffffffff1681565b60025481565b6000809054906101000a900473ffffffffffffffffffffffffffffffffffffffff1673ffffffffffffffffffffffffffffffffffffffff163373ffffffffffffffffffffffffffffffffffffffff1614151561171e576040517f08c379a00000000000000000000000000000000000000000000000000000000081526004018080602001828103825260268152602001807f4f6e6c794f776e6572206d6574686f64732063616c6c6564206279206e6f6e2d81526020017f6f776e65722e000000000000000000000000000000000000000000000000000081525060400191505060405180910390fd5b3073ffffffffffffffffffffffffffffffffffffffff163181111515156117d3576040517f08c379a00000000000000000000000000000000000000000000000000000000081526004018080602001828103825260248152602001807f496e63726561736520616d6f756e74206c6172676572207468616e2062616c6181526020017f6e63652e0000000000000000000000000000000000000000000000000000000081525060400191505060405180910390fd5b3073ffffffffffffffffffffffffffffffffffffffff163181600460109054906101000a90046fffffffffffffffffffffffffffffffff16600460009054906101000a90046fffffffffffffffffffffffffffffffff16016fffffffffffffffffffffffffffffffff1601111515156118b4576040517f08c379a00000000000000000000000000000000000000000000000000000000081526004018080602001828103825260118152602001807f4e6f7420656e6f7567682066756e64732e00000000000000000000000000000081525060200191505060405180910390fd5b6118bf828283612653565b5050565b600160009054906101000a900473ffffffffffffffffffffffffffffffffffffffff1673ffffffffffffffffffffffffffffffffffffffff163373ffffffffffffffffffffffffffffffffffffffff161415156119ae576040517f08c379a00000000000000000000000000000000000000000000000000000000081526004018080602001828103825260268152602001807f43616e206f6e6c792061636365707420707265617070726f766564206e65772081526020017f6f776e65722e000000000000000000000000000000000000000000000000000081525060400191505060405180910390fd5b600160009054906101000a900473ffffffffffffffffffffffffffffffffffffffff166000806101000a81548173ffffffffffffffffffffffffffffffffffffffff021916908373ffffffffffffffffffffffffffffffffffffffff160217905550565b6000809054906101000a900473ffffffffffffffffffffffffffffffffffffffff1673ffffffffffffffffffffffffffffffffffffffff163373ffffffffffffffffffffffffffffffffffffffff16141515611afc576040517f08c379a00000000000000000000000000000000000000000000000000000000081526004018080602001828103825260268152602001807f4f6e6c794f776e6572206d6574686f64732063616c6c6564206279206e6f6e2d81526020017f6f776e65722e000000000000000000000000000000000000000000000000000081525060400191505060405180910390fd5b6000809054906101000a900473ffffffffffffffffffffffffffffffffffffffff1673ffffffffffffffffffffffffffffffffffffffff168173ffffffffffffffffffffffffffffffffffffffff1614151515611bc1576040517f08c379a000000000000000000000000000000000000000000000000000000000815260040180806020018281038252601d8152602001807f43616e6e6f7420617070726f76652063757272656e74206f776e65722e00000081525060200191505060405180910390fd5b80600160006101000a81548173ffffffffffffffffffffffffffffffffffffffff021916908373ffffffffffffffffffffffffffffffffffffffff16021790555050565b6000809054906101000a900473ffffffffffffffffffffffffffffffffffffffff1673ffffffffffffffffffffffffffffffffffffffff163373ffffffffffffffffffffffffffffffffffffffff16141515611cef576040517f08c379a00000000000000000000000000000000000000000000000000000000081526004018080602001828103825260268152602001807f4f6e6c794f776e6572206d6574686f64732063616c6c6564206279206e6f6e2d81526020017f6f776e65722e000000000000000000000000000000000000000000000000000081525060400191505060405180910390fd5b3073ffffffffffffffffffffffffffffffffffffffff16318111151515611da4576040517f08c379a00000000000000000000000000000000000000000000000000000000081526004018080602001828103825260248152602001807f496e63726561736520616d6f756e74206c6172676572207468616e2062616c6181526020017f6e63652e0000000000000000000000000000000000000000000000000000000081525060400191505060405180910390fd5b3073ffffffffffffffffffffffffffffffffffffffff163181600460109054906101000a90046fffffffffffffffffffffffffffffffff16600460009054906101000a90046fffffffffffffffffffffffffffffffff16016fffffffffffffffffffffffffffffffff160111151515611e85576040517f08c379a00000000000000000000000000000000000000000000000000000000081526004018080602001828103825260118152602001807f4e6f7420656e6f7567682066756e64732e00000000000000000000000000000081525060200191505060405180910390fd5b80600460008282829054906101000a90046fffffffffffffffffffffffffffffffff160192506101000a8154816fffffffffffffffffffffffffffffffff02191690836fffffffffffffffffffffffffffffffff16021790555050565b6000809054906101000a900473ffffffffffffffffffffffffffffffffffffffff1673ffffffffffffffffffffffffffffffffffffffff163373ffffffffffffffffffffffffffffffffffffffff16141515611fcc576040517f08c379a00000000000000000000000000000000000000000000000000000000081526004018080602001828103825260268152602001807f4f6e6c794f776e6572206d6574686f64732063616c6c6564206279206e6f6e2d81526020017f6f776e65722e000000000000000000000000000000000000000000000000000081525060400191505060405180910390fd5b80600360006101000a81548173ffffffffffffffffffffffffffffffffffffffff021916908373ffffffffffffffffffffffffffffffffffffffff16021790555050565b600460109054906101000a90046fffffffffffffffffffffffffffffffff1681565b60008060008060056000868152602001908152602001600020935083600001549250600083141515156120f3576040517f08c379a00000000000000000000000000000000000000000000000000000000081526004018080602001828103825260228152602001807f4265742073686f756c6420626520696e20616e2027616374697665272073746181526020017f746500000000000000000000000000000000000000000000000000000000000081525060400191505060405180910390fd5b60fa8460010160029054906101000a900464ffffffffff1664ffffffffff1601431115156121af576040517f08c379a00000000000000000000000000000000000000000000000000000000081526004018080602001828103825260228152602001807f426c6f636b686173682063616e2774206265207175657269656420627920455681526020017f4d2e00000000000000000000000000000000000000000000000000000000000081525060400191505060405180910390fd5b600084600001819055506121ec838560010160009054906101000a900460ff1660ff168660010160019054906101000a900460ff1660ff166124bf565b809250819350505081600460108282829054906101000a90046fffffffffffffffffffffffffffffffff160392506101000a8154816fffffffffffffffffffffffffffffffff02191690836fffffffffffffffffffffffffffffffff16021790555080600460008282829054906101000a90046fffffffffffffffffffffffffffffffff160392506101000a8154816fffffffffffffffffffffffffffffffff02191690836fffffffffffffffffffffffffffffffff1602179055506122d784600101600c9054906101000a900473ffffffffffffffffffffffffffffffffffffffff168485612653565b5050505050565b600080838390509150600090505b8181101561231e57612311848483818110151561230557fe5b90506020020135612734565b80806001019150506122ec565b50505050565b6000809054906101000a900473ffffffffffffffffffffffffffffffffffffffff1673ffffffffffffffffffffffffffffffffffffffff163373ffffffffffffffffffffffffffffffffffffffff1614151561240e576040517f08c379a00000000000000000000000000000000000000000000000000000000081526004018080602001828103825260268152602001807f4f6e6c794f776e6572206d6574686f64732063616c6c6564206279206e6f6e2d81526020017f6f776e65722e000000000000000000000000000000000000000000000000000081525060400191505060405180910390fd5b693f870857a3e0e3800000811015156124b5576040517f08c379a00000000000000000000000000000000000000000000000000000000081526004018080602001828103825260228152602001807f6d617850726f6669742073686f756c6420626520612073616e65206e756d626581526020017f722e00000000000000000000000000000000000000000000000000000000000081525060400191505060405180910390fd5b8060028190555050565b60008060008360001080156124d45750848411155b1515612548576040517f08c379a000000000000000000000000000000000000000000000000000000000815260040180806020018281038252601d8152602001807f57696e2070726f626162696c697479206f7574206f662072616e67652e00000081525060200191505060405180910390fd5b67016345785d8a000086101561255f576000612568565b66038d7ea4c680005b915060646001870281151561257957fe5b049050660110d9316ec00081101561259657660110d9316ec00090505b8582820111151515612636576040517f08c379a00000000000000000000000000000000000000000000000000000000081526004018080602001828103825260228152602001807f42657420646f65736e2774206576656e20636f76657220686f7573652065646781526020017f652e00000000000000000000000000000000000000000000000000000000000081525060400191505060405180910390fd5b838583838903030281151561264757fe5b04925050935093915050565b8273ffffffffffffffffffffffffffffffffffffffff166108fc839081150290604051600060405180830381858888f19350505050156126e0578273ffffffffffffffffffffffffffffffffffffffff167fd4f43975feb89f48dd30cabbb32011045be187d1e11c8ea9faa43efc35282519826040518082815260200191505060405180910390a261272f565b8273ffffffffffffffffffffffffffffffffffffffff167fac464fe4d3a86b9121261ac0a01dd981bfe0777c7c9d9c8f4473d31a9c0f9d2d836040518082815260200191505060405180910390a25b505050565b60006005600083815260200190815260200160002090506000816000015414158061277e575060fa8160010160029054906101000a900464ffffffffff1664ffffffffff16014311155b1561278857612855565b60008160010160006101000a81548160ff021916908360ff16021790555060008160010160016101000a81548160ff021916908360ff16021790555060008160010160026101000a81548164ffffffffff021916908364ffffffffff16021790555060008160010160076101000a81548164ffffffffff021916908364ffffffffff160217905550600081600101600c6101000a81548173ffffffffffffffffffffffffffffffffffffffff021916908373ffffffffffffffffffffffffffffffffffffffff1602179055505b50505600a165627a7a723058205c777e943711a7bd33c00d35ea5250465c9c75022825cb681186ea5e96c5030e0029",
  "source": "pragma solidity ^0.4.23;\n\n// * Uses hybrid commit-reveal + block hash random number generation that is immune\n//   to tampering by players, house and miners. Apart from being fully transparent,\n//   this also allows arbitrarily high bets.\n\ncontract Dice2Win {\n    /// *** Constants section\n\n    // Each bet is deducted 1% in favour of the house, but no less than some minimum.\n    // The lower bound is dictated by gas costs of the settleBet transaction, providing\n    // headroom for up to 10 Gwei prices.\n    uint constant HOUSE_EDGE_PERCENT = 1;\n    uint constant HOUSE_EDGE_MINIMUM_AMOUNT = 0.0003 ether;\n\n    // Bets lower than this amount do not participate in jackpot rolls (and are\n    // not deducted JACKPOT_FEE).\n    uint constant MIN_JACKPOT_BET = 0.1 ether;\n\n    // Chance to win jackpot (currently 0.1%) and fee deducted into jackpot fund.\n    uint constant JACKPOT_MODULO = 1000;\n    uint constant JACKPOT_FEE = 0.001 ether;\n\n    // There is minimum and maximum bets.\n    uint constant MIN_BET = 0.01 ether;\n    uint constant MAX_AMOUNT = 300000 ether;\n\n    // Modulo is a number of equiprobable outcomes in a game:\n    //  - 2 for coin flip\n    //  - 6 for dice\n    //  - 6*6 = 36 for double dice\n    //  - 100 for etheroll\n    //  - 37 for roulette\n    //  etc.\n    // It's called so because 256-bit entropy is treated like a huge integer and\n    // the remainder of its division by modulo is considered bet outcome.\n    uint constant MAX_MODULO = 100;\n\n    // For modulos below this threshold rolls are checked against a bit mask,\n    // thus allowing betting on any combination of outcomes. For example, given\n    // modulo 6 for dice, 101000 mask (base-2, big endian) means betting on\n    // 4 and 6; for games with modulos higher than threshold (Etheroll), a simple\n    // limit is used, allowing betting on any outcome in [0, N) range.\n    //\n    // The specific value is dictated by the fact that 256-bit intermediate\n    // multiplication result allows implementing population count efficiently\n    // for numbers that are up to 42 bits, and 40 is the highest multiple of\n    // eight below 42.\n    uint constant MAX_MASK_MODULO = 40;\n\n    // This is a check on bet mask overflow.\n    uint constant MAX_BET_MASK = 2 ** MAX_MASK_MODULO;\n\n    // EVM BLOCKHASH opcode can query no further than 256 blocks into the\n    // past. Given that settleBet uses block hash of placeBet as one of\n    // complementary entropy sources, we cannot process bets older than this\n    // threshold. On rare occasions dice2.win croupier may fail to invoke\n    // settleBet in this timespan due to technical issues or extreme Ethereum\n    // congestion; such bets can be refunded via invoking refundBet.\n    uint constant BET_EXPIRATION_BLOCKS = 250;\n\n    // Some deliberately invalid address to initialize the secret signer with.\n    // Forces maintainers to invoke setSecretSigner before processing any bets.\n    address constant DUMMY_ADDRESS = 0xEeeeeEeeeEeEeeEeEeEeeEEEeeeeEeeeeeeeEEeE;\n\n    // Standard contract ownership transfer.\n    address public owner;\n    address private nextOwner;\n\n    // Adjustable max bet profit. Used to cap bets against dynamic odds.\n    uint public maxProfit;\n\n    // The address corresponding to a private key used to sign placeBet commits.\n    address public secretSigner;\n\n    // Accumulated jackpot fund.\n    uint128 public jackpotSize;\n\n    // Funds that are locked in potentially winning bets. Prevents contract from\n    // committing to bets it cannot pay out.\n    uint128 public lockedInBets;\n\n    // A structure representing a single bet.\n    struct Bet {\n        // Wager amount in wei.\n        uint amount;\n        // Modulo of a game.\n        uint8 modulo;\n        // Number of winning outcomes, used to compute winning payment (* modulo/rollUnder),\n        // and used instead of mask for games with modulo > MAX_MASK_MODULO.\n        uint8 rollUnder;\n        // Block number of placeBet tx.\n        uint40 placeBlockNumber;\n        // Bit mask representing winning bet outcomes (see MAX_MASK_MODULO comment).\n        uint40 mask;\n        // Address of a gambler, used to pay out winning bets.\n        address gambler;\n    }\n\n    // Mapping from commits to all currently active & processed bets.\n    mapping (uint => Bet) bets;\n\n    // Events that are issued to make statistic recovery easier.\n    event FailedPayment(address indexed beneficiary, uint amount);\n    event Payment(address indexed beneficiary, uint amount);\n    event JackpotPayment(address indexed beneficiary, uint amount);\n\n    // Constructor. Deliberately does not take any parameters.\n    constructor () public {\n        owner = msg.sender;\n        secretSigner = DUMMY_ADDRESS;\n    }\n\n    // Standard modifier on methods invokable only by contract owner.\n    modifier onlyOwner {\n        require (msg.sender == owner, \"OnlyOwner methods called by non-owner.\");\n        _;\n    }\n\n    // Standard contract ownership transfer implementation,\n    function approveNextOwner(address _nextOwner) external onlyOwner {\n        require (_nextOwner != owner, \"Cannot approve current owner.\");\n        nextOwner = _nextOwner;\n    }\n\n    function acceptNextOwner() external {\n        require (msg.sender == nextOwner, \"Can only accept preapproved new owner.\");\n        owner = nextOwner;\n    }\n\n    // Fallback function deliberately left empty. It's primary use case\n    // is to top up the bank roll.\n    function () public payable {\n    }\n\n    // See comment for \"secretSigner\" variable.\n    function setSecretSigner(address newSecretSigner) external onlyOwner {\n        secretSigner = newSecretSigner;\n    }\n\n    // Change max bet reward. Setting this to zero effectively disables betting.\n    function setMaxProfit(uint _maxProfit) public onlyOwner {\n        require (_maxProfit < MAX_AMOUNT, \"maxProfit should be a sane number.\");\n        maxProfit = _maxProfit;\n    }\n\n    // This function is used to bump up the jackpot fund. Cannot be used to lower it.\n    function increaseJackpot(uint increaseAmount) external onlyOwner {\n        require (increaseAmount <= address(this).balance, \"Increase amount larger than balance.\");\n        require (jackpotSize + lockedInBets + increaseAmount <= address(this).balance, \"Not enough funds.\");\n        jackpotSize += uint128(increaseAmount);\n    }\n\n    // Funds withdrawal to cover costs of dice2.win operation.\n    function withdrawFunds(address beneficiary, uint withdrawAmount) external onlyOwner {\n        require (withdrawAmount <= address(this).balance, \"Increase amount larger than balance.\");\n        require (jackpotSize + lockedInBets + withdrawAmount <= address(this).balance, \"Not enough funds.\");\n        sendFunds(beneficiary, withdrawAmount, withdrawAmount);\n    }\n\n    // Contract may be destroyed only when there are no ongoing bets,\n    // either settled or refunded. All funds are transferred to contract owner.\n    function kill() external onlyOwner {\n        require (lockedInBets == 0, \"All bets should be processed (settled or refunded) before self-destruct.\");\n        selfdestruct(owner);\n    }\n\n    /// *** Betting logic\n\n    // Bet states:\n    //  amount == 0 && gambler == 0 - 'clean' (can place a bet)\n    //  amount != 0 && gambler != 0 - 'active' (can be settled or refunded)\n    //  amount == 0 && gambler != 0 - 'processed' (can clean storage)\n\n    // Bet placing transaction - issued by the player.\n    //  betMask         - bet outcomes bit mask for modulo <= MAX_MASK_MODULO,\n    //                    [0, betMask) for larger modulos.\n    //  modulo          - game modulo.\n    //  commitLastBlock - number of the maximum block where \"commit\" is still considered valid.\n    //  commit          - Keccak256 hash of some secret \"reveal\" random number, to be supplied\n    //                    by the dice2.win croupier bot in the settleBet transaction. Supplying\n    //                    \"commit\" ensures that \"reveal\" cannot be changed behind the scenes\n    //                    after placeBet have been mined.\n    //  r, s            - components of ECDSA signature of (commitLastBlock, commit). v is\n    //                    guaranteed to always equal 27.\n    //\n    // Commit, being essentially random 256-bit number, is used as a unique bet identifier in\n    // the 'bets' mapping.\n    //\n    // Commits are signed with a block limit to ensure that they are used at most once - otherwise\n    // it would be possible for a miner to place a bet with a known commit/reveal pair and tamper\n    // with the blockhash. Croupier guarantees that commitLastBlock will always be not greater than\n    // placeBet block number plus BET_EXPIRATION_BLOCKS. See whitepaper for details.\n    function placeBet(uint betMask, uint modulo, uint commitLastBlock, uint commit, bytes32 r, bytes32 s) external payable {\n        // Check that the bet is in 'clean' state.\n        Bet storage bet = bets[commit];\n        require (bet.gambler == address(0), \"Bet should be in a 'clean' state.\");\n\n        // Validate input data ranges.\n        uint amount = msg.value;\n        require (modulo > 1 && modulo <= MAX_MODULO, \"Modulo should be within range.\");\n        require (amount >= MIN_BET && amount <= MAX_AMOUNT, \"Amount should be within range.\");\n        require (betMask > 0 && betMask < MAX_BET_MASK, \"Mask should be within range.\");\n\n        // Check that commit is valid - it has not expired and its signature is valid.\n        require (block.number <= commitLastBlock, \"Commit has expired.\");\n        bytes32 signatureHash = keccak256(abi.encodePacked(uint40(commitLastBlock), commit));\n        require (secretSigner == ecrecover(signatureHash, 27, r, s), \"ECDSA signature is not valid.\");\n\n        uint rollUnder;\n        uint mask;\n\n        if (modulo <= MAX_MASK_MODULO) {\n            // Small modulo games specify bet outcomes via bit mask.\n            // rollUnder is a number of 1 bits in this mask (population count).\n            // This magic looking formula is an efficient way to compute population\n            // count on EVM for numbers below 2**40. For detailed proof consult\n            // the dice2.win whitepaper.\n            rollUnder = ((betMask * POPCNT_MULT) & POPCNT_MASK) % POPCNT_MODULO;\n            mask = betMask;\n        } else {\n            // Larger modulos specify the right edge of half-open interval of\n            // winning bet outcomes.\n            require (betMask > 0 && betMask <= modulo, \"High modulo range, betMask larger than modulo.\");\n            rollUnder = betMask;\n        }\n\n        // Winning amount and jackpot increase.\n        uint possibleWinAmount;\n        uint jackpotFee;\n\n        (possibleWinAmount, jackpotFee) = getDiceWinAmount(amount, modulo, rollUnder);\n\n        // Enforce max profit limit.\n        require (possibleWinAmount <= amount + maxProfit, \"maxProfit limit violation.\");\n\n        // Lock funds.\n        lockedInBets += uint128(possibleWinAmount);\n        jackpotSize += uint128(jackpotFee);\n\n        // Check whether contract has enough funds to process this bet.\n        require (jackpotSize + lockedInBets <= address(this).balance, \"Cannot afford to lose this bet.\");\n\n        // Store bet parameters on blockchain.\n        bet.amount = amount;\n        bet.modulo = uint8(modulo);\n        bet.rollUnder = uint8(rollUnder);\n        bet.placeBlockNumber = uint40(block.number);\n        bet.mask = uint40(mask);\n        bet.gambler = msg.sender;\n    }\n\n    // Settlement transaction - can in theory be issued by anyone, but is designed to be\n    // handled by the dice2.win croupier bot. To settle a bet with a specific \"commit\",\n    // settleBet should supply a \"reveal\" number that would Keccak256-hash to\n    // \"commit\". clean_commit is some previously 'processed' bet, that will be moved into\n    // 'clean' state to prevent blockchain bloat and refund some gas.\n    function settleBet(uint reveal, uint cleanCommit) external {\n        // \"commit\" for bet settlement can only be obtained by hashing a \"reveal\".\n        uint commit = uint(keccak256(abi.encodePacked(reveal)));\n\n        // Fetch bet parameters into local variables (to save gas).\n        Bet storage bet = bets[commit];\n        uint amount = bet.amount;\n        uint modulo = bet.modulo;\n        uint rollUnder = bet.rollUnder;\n        uint placeBlockNumber = bet.placeBlockNumber;\n        address gambler = bet.gambler;\n\n        // Check that bet is in 'active' state.\n        require (amount != 0, \"Bet should be in an 'active' state\");\n\n        // Check that bet has not expired yet (see comment to BET_EXPIRATION_BLOCKS).\n        require (block.number > placeBlockNumber, \"settleBet in the same block as placeBet, or before.\");\n        require (block.number <= placeBlockNumber + BET_EXPIRATION_BLOCKS, \"Blockhash can't be queried by EVM.\");\n\n        // Move bet into 'processed' state already.\n        bet.amount = 0;\n\n        // The RNG - combine \"reveal\" and blockhash of placeBet using Keccak256. Miners\n        // are not aware of \"reveal\" and cannot deduce it from \"commit\" (as Keccak256\n        // preimage is intractable), and house is unable to alter the \"reveal\" after\n        // placeBet have been mined (as Keccak256 collision finding is also intractable).\n        bytes32 entropy = keccak256(abi.encodePacked(reveal, blockhash(placeBlockNumber)));\n\n        // Do a roll by taking a modulo of entropy. Compute winning amount.\n        uint dice = uint(entropy) % modulo;\n\n        uint diceWinAmount;\n        uint _jackpotFee;\n        (diceWinAmount, _jackpotFee) = getDiceWinAmount(amount, modulo, rollUnder);\n\n        uint diceWin = 0;\n        uint jackpotWin = 0;\n\n        // Determine dice outcome.\n        if (modulo <= MAX_MASK_MODULO) {\n            // For small modulo games, check the outcome against a bit mask.\n            if ((2 ** dice) & bet.mask != 0) {\n                diceWin = diceWinAmount;\n            }\n\n        } else {\n            // For larger modulos, check inclusion into half-open interval.\n            if (dice < rollUnder) {\n                diceWin = diceWinAmount;\n            }\n\n        }\n\n        // Unlock the bet amount, regardless of the outcome.\n        lockedInBets -= uint128(diceWinAmount);\n\n        // Roll for a jackpot (if eligible).\n        if (amount >= MIN_JACKPOT_BET) {\n            // The second modulo, statistically independent from the \"main\" dice roll.\n            // Effectively you are playing two games at once!\n            uint jackpotRng = (uint(entropy) / modulo) % JACKPOT_MODULO;\n\n            // Bingo!\n            if (jackpotRng == 0) {\n                jackpotWin = jackpotSize;\n                jackpotSize = 0;\n            }\n        }\n\n        // Log jackpot win.\n        if (jackpotWin > 0) {\n            emit JackpotPayment(gambler, jackpotWin);\n        }\n\n        // Send the funds to gambler.\n        sendFunds(gambler, diceWin + jackpotWin == 0 ? 1 wei : diceWin + jackpotWin, diceWin);\n\n        // Clear storage of some previous bet.\n        if (cleanCommit == 0) {\n            return;\n        }\n\n        clearProcessedBet(cleanCommit);\n    }\n\n    // Refund transaction - return the bet amount of a roll that was not processed in a\n    // due timeframe. Processing such blocks is not possible due to EVM limitations (see\n    // BET_EXPIRATION_BLOCKS comment above for details). In case you ever find yourself\n    // in a situation like this, just contact the dice2.win support, however nothing\n    // precludes you from invoking this method yourself.\n    function refundBet(uint commit) external {\n        // Check that bet is in 'active' state.\n        Bet storage bet = bets[commit];\n        uint amount = bet.amount;\n\n        require (amount != 0, \"Bet should be in an 'active' state\");\n\n        // Check that bet has already expired.\n        require (block.number > bet.placeBlockNumber + BET_EXPIRATION_BLOCKS, \"Blockhash can't be queried by EVM.\");\n\n        // Move bet into 'processed' state, release funds.\n        bet.amount = 0;\n\n        uint diceWinAmount;\n        uint jackpotFee;\n        (diceWinAmount, jackpotFee) = getDiceWinAmount(amount, bet.modulo, bet.rollUnder);\n\n        lockedInBets -= uint128(diceWinAmount);\n        jackpotSize -= uint128(jackpotFee);\n\n        // Send the refund.\n        sendFunds(bet.gambler, amount, amount);\n    }\n\n    // A helper routine to bulk clean the storage.\n    function clearStorage(uint[] cleanCommits) external {\n        uint length = cleanCommits.length;\n\n        for (uint i = 0; i < length; i++) {\n            clearProcessedBet(cleanCommits[i]);\n        }\n    }\n\n    // Helper routine to move 'processed' bets into 'clean' state.\n    function clearProcessedBet(uint commit) private {\n        Bet storage bet = bets[commit];\n\n        // Do not overwrite active bets with zeros; additionally prevent cleanup of bets\n        // for which commit signatures may have not expired yet (see whitepaper for details).\n        if (bet.amount != 0 || block.number <= bet.placeBlockNumber + BET_EXPIRATION_BLOCKS) {\n            return;\n        }\n\n        // Zero out the remaining storage (amount was zeroed before, delete would consume 5k\n        // more gas).\n        bet.modulo = 0;\n        bet.rollUnder = 0;\n        bet.placeBlockNumber = 0;\n        bet.mask = 0;\n        bet.gambler = address(0);\n    }\n\n    // Get the expected win amount after house edge is subtracted.\n    function getDiceWinAmount(uint amount, uint modulo, uint rollUnder) private pure returns (uint winAmount, uint jackpotFee) {\n        require (0 < rollUnder && rollUnder <= modulo, \"Win probability out of range.\");\n\n        jackpotFee = amount >= MIN_JACKPOT_BET ? JACKPOT_FEE : 0;\n\n        uint houseEdge = amount * HOUSE_EDGE_PERCENT / 100;\n\n        if (houseEdge < HOUSE_EDGE_MINIMUM_AMOUNT) {\n            houseEdge = HOUSE_EDGE_MINIMUM_AMOUNT;\n        }\n\n        require (houseEdge + jackpotFee <= amount, \"Bet doesn't even cover house edge.\");\n        winAmount = (amount - houseEdge - jackpotFee) * modulo / rollUnder;\n    }\n\n    // Helper routine to process the payment.\n    function sendFunds(address beneficiary, uint amount, uint successLogAmount) private {\n        if (beneficiary.send(amount)) {\n            emit Payment(beneficiary, successLogAmount);\n        } else {\n            emit FailedPayment(beneficiary, amount);\n        }\n    }\n\n    // This are some constants making O(1) population count in placeBet possible.\n    // See whitepaper for intuition and proofs behind it.\n    uint constant POPCNT_MULT = 0x0000000000002000000000100000000008000000000400000000020000000001;\n    uint constant POPCNT_MASK = 0x0001041041041041041041041041041041041041041041041041041041041041;\n    uint constant POPCNT_MODULO = 0x3F;\n}\n",
  "sourcePath": "/usr/local/ShareDice/contracts/Dice2Win.sol",
  "compiler": {
    "name": "solc",
    "version": "0.4.24+commit.e67f0147.Emscripten.clang"
  },
  "schemaVersion": "2.0.1",
  "updatedAt": "2018-09-11T05:23:21.140Z"
}