{
  "contractName": "NameFilter",
  "abi": [
    {
      "constant": true,
      "inputs": [
        {
          "name": "x",
          "type": "bytes32"
        }
      ],
      "name": "bytes32ToString",
      "outputs": [
        {
          "name": "",
          "type": "string"
        }
      ],
      "payable": false,
      "stateMutability": "pure",
      "type": "function"
    }
  ],
  "bytecode": "0x610322610030600b82828239805160001a6073146000811461002057610022565bfe5b5030600052607381538281f3007300000000000000000000000000000000000000003014608060405260043610610058576000357c0100000000000000000000000000000000000000000000000000000000900463ffffffff1680639201de551461005d575b600080fd5b61007f60048036038101908080356000191690602001909291905050506100fa565b6040518080602001828103825283818151815260200191508051906020019080838360005b838110156100bf5780820151818401526020810190506100a4565b50505050905090810190601f1680156100ec5780820380516001836020036101000a031916815260200191505b509250505060405180910390f35b6060806000806000606060206040519080825280601f01601f1916602001820160405280156101385781602001602082028038833980820191505090505b50945060009350600092505b6020831015610202578260080260020a876001900402600102915060007f010000000000000000000000000000000000000000000000000000000000000002827effffffffffffffffffffffffffffffffffffffffffffffffffffffffffffff19161415156101f5578185858151811015156101bc57fe5b9060200101907effffffffffffffffffffffffffffffffffffffffffffffffffffffffffffff1916908160001a90535083806001019450505b8280600101935050610144565b836040519080825280601f01601f1916602001820160405280156102355781602001602082028038833980820191505090505b509050600092505b838310156102e957848381518110151561025357fe5b9060200101517f010000000000000000000000000000000000000000000000000000000000000090047f01000000000000000000000000000000000000000000000000000000000000000281848151811015156102ac57fe5b9060200101907effffffffffffffffffffffffffffffffffffffffffffffffffffffffffffff1916908160001a905350828060010193505061023d565b80955050505050509190505600a165627a7a7230582044525a4924437164cc83f6d93133223848efd1c27a3ec228b33c86fb2c5f29a70029",
  "source": "pragma solidity ^0.4.24;\n\nlibrary NameFilter {\n    /**\n     * @dev filters name strings\n     * -converts uppercase to lower case.  \n     * -makes sure it does not start/end with a space\n     * -makes sure it does not contain multiple spaces in a row\n     * -cannot be only numbers\n     * -cannot start with 0x \n     * -restricts characters to A-Z, a-z, 0-9, and space.\n     * @return reprocessed string in bytes32 format\n     */\n    function nameFilter(string _input) internal pure returns(bytes32) {\n        bytes memory _temp = bytes(_input);\n        uint256 _length = _temp.length;\n        \n        //sorry limited to 32 characters\n        require (_length <= 32 && _length > 0, \"string must be between 1 and 32 characters\");\n        // make sure it doesnt start with or end with space\n        require(_temp[0] != 0x20 && _temp[_length-1] != 0x20, \"string cannot start or end with space\");\n        // make sure first two characters are not 0x\n        if (_temp[0] == 0x30)\n        {\n            require(_temp[1] != 0x78, \"string cannot start with 0x\");\n            require(_temp[1] != 0x58, \"string cannot start with 0X\");\n        }\n        \n        // create a bool to track if we have a non number character\n        bool _hasNonNumber;\n        \n        // convert & check\n        for (uint256 i = 0; i < _length; i++)\n        {\n            // if its uppercase A-Z\n            if (_temp[i] > 0x40 && _temp[i] < 0x5b)\n            {\n                // convert to lower case a-z\n                _temp[i] = byte(uint(_temp[i]) + 32);\n                \n                // we have a non number\n                if (_hasNonNumber == false)\n                    _hasNonNumber = true;\n            } else {\n                require\n                (\n                    // require character is a space\n                    _temp[i] == 0x20 || \n                    // OR lowercase a-z\n                    (_temp[i] > 0x60 && _temp[i] < 0x7b) ||\n                    // or 0-9\n                    (_temp[i] > 0x2f && _temp[i] < 0x3a),\n                    \"string contains invalid characters\"\n                );\n                // make sure theres not 2x spaces in a row\n                if (_temp[i] == 0x20)\n                    require( _temp[i+1] != 0x20, \"string cannot contain consecutive spaces\");\n                \n                // see if we have a character other than a number\n                if (_hasNonNumber == false && (_temp[i] < 0x30 || _temp[i] > 0x39))\n                    _hasNonNumber = true;    \n            }\n        }\n        \n        require(_hasNonNumber == true, \"string cannot be only numbers\");\n        \n        bytes32 _ret;\n        assembly {\n            _ret := mload(add(_temp, 32))\n        }\n        return (_ret);\n    }\n\n\tfunction bytes32ToString(bytes32 x) public pure returns (string) {\n        bytes memory bytesString = new bytes(32);\n        uint charCount = 0;\n        for (uint j = 0; j < 32; j++) {\n            byte char = byte(bytes32(uint(x) * 2 ** (8 * j)));\n            if (char != 0) {\n                bytesString[charCount] = char;\n                charCount++;\n            }\n        }\n        bytes memory bytesStringTrimmed = new bytes(charCount);\n        for (j = 0; j < charCount; j++) {\n            bytesStringTrimmed[j] = bytesString[j];\n        }\n        return string(bytesStringTrimmed);\n    }\n\n}\n",
  "sourcePath": "/usr/local/ShareDice/contracts/library/NameFilter.sol",
  "compiler": {
    "name": "solc",
    "version": "0.4.24+commit.e67f0147.Emscripten.clang"
  },
  "schemaVersion": "2.0.1",
  "updatedAt": "2018-09-11T05:28:43.412Z"
}