{
  "contractName": "PlayerBook",
  "abi": [
    {
      "constant": true,
      "inputs": [
        {
          "name": "",
          "type": "uint256"
        }
      ],
      "name": "playerSet",
      "outputs": [
        {
          "name": "addr",
          "type": "address"
        },
        {
          "name": "name",
          "type": "bytes32"
        },
        {
          "name": "laff",
          "type": "address"
        }
      ],
      "payable": false,
      "stateMutability": "view",
      "type": "function"
    },
    {
      "constant": true,
      "inputs": [],
      "name": "registrationFee",
      "outputs": [
        {
          "name": "",
          "type": "uint256"
        }
      ],
      "payable": false,
      "stateMutability": "view",
      "type": "function"
    },
    {
      "constant": true,
      "inputs": [],
      "name": "plyCount",
      "outputs": [
        {
          "name": "",
          "type": "uint256"
        }
      ],
      "payable": false,
      "stateMutability": "view",
      "type": "function"
    },
    {
      "constant": true,
      "inputs": [
        {
          "name": "",
          "type": "bytes32"
        }
      ],
      "name": "name2pid",
      "outputs": [
        {
          "name": "",
          "type": "uint256"
        }
      ],
      "payable": false,
      "stateMutability": "view",
      "type": "function"
    },
    {
      "constant": true,
      "inputs": [],
      "name": "owner",
      "outputs": [
        {
          "name": "",
          "type": "address"
        }
      ],
      "payable": false,
      "stateMutability": "view",
      "type": "function"
    },
    {
      "constant": true,
      "inputs": [
        {
          "name": "",
          "type": "address"
        }
      ],
      "name": "addr2pid",
      "outputs": [
        {
          "name": "",
          "type": "uint256"
        }
      ],
      "payable": false,
      "stateMutability": "view",
      "type": "function"
    },
    {
      "inputs": [],
      "payable": false,
      "stateMutability": "nonpayable",
      "type": "constructor"
    },
    {
      "anonymous": false,
      "inputs": [
        {
          "indexed": true,
          "name": "playerAddr",
          "type": "address"
        },
        {
          "indexed": true,
          "name": "playerName",
          "type": "bytes32"
        },
        {
          "indexed": false,
          "name": "amountPaid",
          "type": "uint256"
        },
        {
          "indexed": false,
          "name": "timeStamp",
          "type": "uint256"
        }
      ],
      "name": "onNewName",
      "type": "event"
    },
    {
      "constant": false,
      "inputs": [
        {
          "name": "name",
          "type": "string"
        },
        {
          "name": "laff",
          "type": "address"
        }
      ],
      "name": "registerName",
      "outputs": [],
      "payable": true,
      "stateMutability": "payable",
      "type": "function"
    },
    {
      "constant": true,
      "inputs": [
        {
          "name": "name",
          "type": "string"
        }
      ],
      "name": "checkIfNameValid",
      "outputs": [
        {
          "name": "",
          "type": "bool"
        }
      ],
      "payable": false,
      "stateMutability": "view",
      "type": "function"
    },
    {
      "constant": true,
      "inputs": [],
      "name": "getUserName",
      "outputs": [
        {
          "name": "",
          "type": "string"
        }
      ],
      "payable": false,
      "stateMutability": "view",
      "type": "function"
    },
    {
      "constant": false,
      "inputs": [
        {
          "name": "_fee",
          "type": "uint256"
        }
      ],
      "name": "setRegistrationFee",
      "outputs": [],
      "payable": false,
      "stateMutability": "nonpayable",
      "type": "function"
    },
    {
      "constant": true,
      "inputs": [
        {
          "name": "pid",
          "type": "uint256"
        }
      ],
      "name": "getPlayerName",
      "outputs": [
        {
          "name": "",
          "type": "bytes32"
        }
      ],
      "payable": false,
      "stateMutability": "view",
      "type": "function"
    },
    {
      "constant": true,
      "inputs": [
        {
          "name": "pid",
          "type": "uint256"
        }
      ],
      "name": "getPlayerLAff",
      "outputs": [
        {
          "name": "",
          "type": "address"
        }
      ],
      "payable": false,
      "stateMutability": "view",
      "type": "function"
    },
    {
      "constant": true,
      "inputs": [
        {
          "name": "pid",
          "type": "uint256"
        }
      ],
      "name": "getPlayerAddr",
      "outputs": [
        {
          "name": "",
          "type": "address"
        }
      ],
      "payable": false,
      "stateMutability": "view",
      "type": "function"
    }
  ],
  "bytecode": "0x6080604052662386f26fc1000060015534801561001b57600080fd5b50336000806101000a81548173ffffffffffffffffffffffffffffffffffffffff021916908373ffffffffffffffffffffffffffffffffffffffff1602179055506100d86000809054906101000a900473ffffffffffffffffffffffffffffffffffffffff167f736b7900000000000000000000000000000000000000000000000000000000006000809054906101000a900473ffffffffffffffffffffffffffffffffffffffff166100dd640100000000026401000000009004565b6103c7565b6000806004600085600019166000191681526020019081526020016000205414151561021d57600360003373ffffffffffffffffffffffffffffffffffffffff1673ffffffffffffffffffffffffffffffffffffffff16815260200190815260200160002054600460008560001916600019168152602001908152602001600020541415156101fa576040517f08c379a000000000000000000000000000000000000000000000000000000000815260040180806020018281038252602a8152602001807f736f7272792120796f752063616e742774206368616e676520746865206f746881526020017f65722773206e616d65210000000000000000000000000000000000000000000081525060400191505060405180910390fd5b600460008460001916600019168152602001908152602001600020549050610235565b60026000815480929190600101919050555060025490505b836005600083815260200190815260200160002060000160006101000a81548173ffffffffffffffffffffffffffffffffffffffff021916908373ffffffffffffffffffffffffffffffffffffffff16021790555082600560008381526020019081526020016000206001018160001916905550816005600083815260200190815260200160002060020160006101000a81548173ffffffffffffffffffffffffffffffffffffffff021916908373ffffffffffffffffffffffffffffffffffffffff160217905550600254600360008673ffffffffffffffffffffffffffffffffffffffff1673ffffffffffffffffffffffffffffffffffffffff168152602001908152602001600020819055506002546004600085600019166000191681526020019081526020016000208190555082600019168473ffffffffffffffffffffffffffffffffffffffff167feb074f5bfa78d467c0b6df9a1bc06867127a76185d28cab26688dca47140abf63442604051808381526020018281526020019250505060405180910390a350505050565b611cb0806103d66000396000f3006080604052600436106100c5576000357c0100000000000000000000000000000000000000000000000000000000900463ffffffff16806305ffc877146100ca57806312958f1c1461017957806314c44e09146102095780634d0d35ff146102345780634d2bf82d146102a157806357fabea7146102cc5780636c52660d146103115780637b59af161461039257806382e37b2c1461040e5780638da5cb5b14610457578063b9d870ef146104ae578063c320c72714610505578063e3c08adf14610532575b600080fd5b3480156100d657600080fd5b506100f56004803603810190808035906020019092919050505061059f565b604051808473ffffffffffffffffffffffffffffffffffffffff1673ffffffffffffffffffffffffffffffffffffffff16815260200183600019166000191681526020018273ffffffffffffffffffffffffffffffffffffffff1673ffffffffffffffffffffffffffffffffffffffff168152602001935050505060405180910390f35b34801561018557600080fd5b5061018e610609565b6040518080602001828103825283818151815260200191508051906020019080838360005b838110156101ce5780820151818401526020810190506101b3565b50505050905090810190601f1680156101fb5780820380516001836020036101000a031916815260200191505b509250505060405180910390f35b34801561021557600080fd5b5061021e61076f565b6040518082815260200191505060405180910390f35b34801561024057600080fd5b5061025f60048036038101908080359060200190929190505050610775565b604051808273ffffffffffffffffffffffffffffffffffffffff1673ffffffffffffffffffffffffffffffffffffffff16815260200191505060405180910390f35b3480156102ad57600080fd5b506102b66107b5565b6040518082815260200191505060405180910390f35b3480156102d857600080fd5b506102fb60048036038101908080356000191690602001909291905050506107bb565b6040518082815260200191505060405180910390f35b34801561031d57600080fd5b50610378600480360381019080803590602001908201803590602001908080601f01602080910402602001604051908101604052809392919081815260200183838082843782019150505050505091929192905050506107d3565b604051808215151515815260200191505060405180910390f35b61040c600480360381019080803590602001908201803590602001908080601f0160208091040260200160405190810160405280939291908181526020018383808284378201915050505050509192919290803573ffffffffffffffffffffffffffffffffffffffff169060200190929190505050610816565b005b34801561041a57600080fd5b50610439600480360381019080803590602001909291905050506108ad565b60405180826000191660001916815260200191505060405180910390f35b34801561046357600080fd5b5061046c6108cd565b604051808273ffffffffffffffffffffffffffffffffffffffff1673ffffffffffffffffffffffffffffffffffffffff16815260200191505060405180910390f35b3480156104ba57600080fd5b506104ef600480360381019080803573ffffffffffffffffffffffffffffffffffffffff1690602001909291905050506108f2565b6040518082815260200191505060405180910390f35b34801561051157600080fd5b506105306004803603810190808035906020019092919050505061090a565b005b34801561053e57600080fd5b5061055d600480360381019080803590602001909291905050506109d8565b604051808273ffffffffffffffffffffffffffffffffffffffff1673ffffffffffffffffffffffffffffffffffffffff16815260200191505060405180910390f35b60056020528060005260406000206000915090508060000160009054906101000a900473ffffffffffffffffffffffffffffffffffffffff16908060010154908060020160009054906101000a900473ffffffffffffffffffffffffffffffffffffffff16905083565b606060056000600360003373ffffffffffffffffffffffffffffffffffffffff1673ffffffffffffffffffffffffffffffffffffffff168152602001908152602001600020548152602001908152602001600020600101546000191673__NameFilter____________________________639201de5590916040518263ffffffff167c010000000000000000000000000000000000000000000000000000000002815260040180826000191660001916815260200191505060006040518083038186803b1580156106d957600080fd5b505af41580156106ed573d6000803e3d6000fd5b505050506040513d6000823e3d601f19601f82011682018060405250602081101561071757600080fd5b81019080805164010000000081111561072f57600080fd5b8281019050602081018481111561074557600080fd5b815185600182028301116401000000008211171561076257600080fd5b5050929190505050905090565b60015481565b60006005600083815260200190815260200160002060000160009054906101000a900473ffffffffffffffffffffffffffffffffffffffff169050919050565b60025481565b60046020528060005260406000206000915090505481565b6000806107df83610a18565b90506000600460008360001916600019168152602001908152602001600020541161080b57600061080e565b60015b915050919050565b60006001543410151515610892576040517f08c379a000000000000000000000000000000000000000000000000000000000815260040180806020018281038252601d8152602001807f596f75206861766520746f2070617920746865206e616d65206665652100000081525060200191505060405180910390fd5b61089b83610a18565b90506108a833828461199a565b505050565b600060056000838152602001908152602001600020600101549050919050565b6000809054906101000a900473ffffffffffffffffffffffffffffffffffffffff1681565b60036020528060005260406000206000915090505481565b6000809054906101000a900473ffffffffffffffffffffffffffffffffffffffff1673ffffffffffffffffffffffffffffffffffffffff163373ffffffffffffffffffffffffffffffffffffffff161415156109ce576040517f08c379a00000000000000000000000000000000000000000000000000000000081526004018080602001828103825260178152602001807f6d73672073656e646572206973206e6f74206f776e657200000000000000000081525060200191505060405180910390fd5b8060018190555050565b60006005600083815260200190815260200160002060020160009054906101000a900473ffffffffffffffffffffffffffffffffffffffff169050919050565b600060606000806000808694508451935060208411158015610a3a5750600084115b1515610ad4576040517f08c379a000000000000000000000000000000000000000000000000000000000815260040180806020018281038252602a8152602001807f737472696e67206d757374206265206265747765656e203120616e642033322081526020017f636861726163746572730000000000000000000000000000000000000000000081525060400191505060405180910390fd5b60207f010000000000000000000000000000000000000000000000000000000000000002856000815181101515610b0757fe5b9060200101517f010000000000000000000000000000000000000000000000000000000000000090047f0100000000000000000000000000000000000000000000000000000000000000027effffffffffffffffffffffffffffffffffffffffffffffffffffffffffffff191614158015610c22575060207f0100000000000000000000000000000000000000000000000000000000000000028560018603815181101515610bb257fe5b9060200101517f010000000000000000000000000000000000000000000000000000000000000090047f0100000000000000000000000000000000000000000000000000000000000000027effffffffffffffffffffffffffffffffffffffffffffffffffffffffffffff191614155b1515610cbc576040517f08c379a00000000000000000000000000000000000000000000000000000000081526004018080602001828103825260258152602001807f737472696e672063616e6e6f74207374617274206f7220656e6420776974682081526020017f737061636500000000000000000000000000000000000000000000000000000081525060400191505060405180910390fd5b60307f010000000000000000000000000000000000000000000000000000000000000002856000815181101515610cef57fe5b9060200101517f010000000000000000000000000000000000000000000000000000000000000090047f0100000000000000000000000000000000000000000000000000000000000000027effffffffffffffffffffffffffffffffffffffffffffffffffffffffffffff19161415610f8f5760787f010000000000000000000000000000000000000000000000000000000000000002856001815181101515610d9557fe5b9060200101517f010000000000000000000000000000000000000000000000000000000000000090047f0100000000000000000000000000000000000000000000000000000000000000027effffffffffffffffffffffffffffffffffffffffffffffffffffffffffffff191614151515610e78576040517f08c379a000000000000000000000000000000000000000000000000000000000815260040180806020018281038252601b8152602001807f737472696e672063616e6e6f742073746172742077697468203078000000000081525060200191505060405180910390fd5b60587f010000000000000000000000000000000000000000000000000000000000000002856001815181101515610eab57fe5b9060200101517f010000000000000000000000000000000000000000000000000000000000000090047f0100000000000000000000000000000000000000000000000000000000000000027effffffffffffffffffffffffffffffffffffffffffffffffffffffffffffff191614151515610f8e576040517f08c379a000000000000000000000000000000000000000000000000000000000815260040180806020018281038252601b8152602001807f737472696e672063616e6e6f742073746172742077697468203058000000000081525060200191505060405180910390fd5b5b600091505b8382101561190a5760407f0100000000000000000000000000000000000000000000000000000000000000028583815181101515610fce57fe5b9060200101517f010000000000000000000000000000000000000000000000000000000000000090047f0100000000000000000000000000000000000000000000000000000000000000027effffffffffffffffffffffffffffffffffffffffffffffffffffffffffffff19161180156110e45750605b7f010000000000000000000000000000000000000000000000000000000000000002858381518110151561107557fe5b9060200101517f010000000000000000000000000000000000000000000000000000000000000090047f0100000000000000000000000000000000000000000000000000000000000000027effffffffffffffffffffffffffffffffffffffffffffffffffffffffffffff1916105b156111df57602085838151811015156110f957fe5b9060200101517f010000000000000000000000000000000000000000000000000000000000000090047f0100000000000000000000000000000000000000000000000000000000000000027f01000000000000000000000000000000000000000000000000000000000000009004017f010000000000000000000000000000000000000000000000000000000000000002858381518110151561119857fe5b9060200101907effffffffffffffffffffffffffffffffffffffffffffffffffffffffffffff1916908160001a9053506000151583151514156111da57600192505b6118fd565b60207f010000000000000000000000000000000000000000000000000000000000000002858381518110151561121157fe5b9060200101517f010000000000000000000000000000000000000000000000000000000000000090047f0100000000000000000000000000000000000000000000000000000000000000027effffffffffffffffffffffffffffffffffffffffffffffffffffffffffffff191614806113ce575060607f01000000000000000000000000000000000000000000000000000000000000000285838151811015156112b757fe5b9060200101517f010000000000000000000000000000000000000000000000000000000000000090047f0100000000000000000000000000000000000000000000000000000000000000027effffffffffffffffffffffffffffffffffffffffffffffffffffffffffffff19161180156113cd5750607b7f010000000000000000000000000000000000000000000000000000000000000002858381518110151561135e57fe5b9060200101517f010000000000000000000000000000000000000000000000000000000000000090047f0100000000000000000000000000000000000000000000000000000000000000027effffffffffffffffffffffffffffffffffffffffffffffffffffffffffffff1916105b5b8061151d5750602f7f010000000000000000000000000000000000000000000000000000000000000002858381518110151561140657fe5b9060200101517f010000000000000000000000000000000000000000000000000000000000000090047f0100000000000000000000000000000000000000000000000000000000000000027effffffffffffffffffffffffffffffffffffffffffffffffffffffffffffff191611801561151c5750603a7f01000000000000000000000000000000000000000000000000000000000000000285838151811015156114ad57fe5b9060200101517f010000000000000000000000000000000000000000000000000000000000000090047f0100000000000000000000000000000000000000000000000000000000000000027effffffffffffffffffffffffffffffffffffffffffffffffffffffffffffff1916105b5b15156115b7576040517f08c379a00000000000000000000000000000000000000000000000000000000081526004018080602001828103825260228152602001807f737472696e6720636f6e7461696e7320696e76616c696420636861726163746581526020017f727300000000000000000000000000000000000000000000000000000000000081525060400191505060405180910390fd5b60207f01000000000000000000000000000000000000000000000000000000000000000285838151811015156115e957fe5b9060200101517f010000000000000000000000000000000000000000000000000000000000000090047f0100000000000000000000000000000000000000000000000000000000000000027effffffffffffffffffffffffffffffffffffffffffffffffffffffffffffff1916141561179b5760207f010000000000000000000000000000000000000000000000000000000000000002856001840181518110151561169157fe5b9060200101517f010000000000000000000000000000000000000000000000000000000000000090047f0100000000000000000000000000000000000000000000000000000000000000027effffffffffffffffffffffffffffffffffffffffffffffffffffffffffffff19161415151561179a576040517f08c379a00000000000000000000000000000000000000000000000000000000081526004018080602001828103825260288152602001807f737472696e672063616e6e6f7420636f6e7461696e20636f6e7365637574697681526020017f652073706163657300000000000000000000000000000000000000000000000081525060400191505060405180910390fd5b5b600015158315151480156118f2575060307f01000000000000000000000000000000000000000000000000000000000000000285838151811015156117dc57fe5b9060200101517f010000000000000000000000000000000000000000000000000000000000000090047f0100000000000000000000000000000000000000000000000000000000000000027effffffffffffffffffffffffffffffffffffffffffffffffffffffffffffff191610806118f1575060397f010000000000000000000000000000000000000000000000000000000000000002858381518110151561188257fe5b9060200101517f010000000000000000000000000000000000000000000000000000000000000090047f0100000000000000000000000000000000000000000000000000000000000000027effffffffffffffffffffffffffffffffffffffffffffffffffffffffffffff1916115b5b156118fc57600192505b5b8180600101925050610f94565b60011515831515141515611986576040517f08c379a000000000000000000000000000000000000000000000000000000000815260040180806020018281038252601d8152602001807f737472696e672063616e6e6f74206265206f6e6c79206e756d6265727300000081525060200191505060405180910390fd5b602085015190508095505050505050919050565b60008060046000856000191660001916815260200190815260200160002054141515611ada57600360003373ffffffffffffffffffffffffffffffffffffffff1673ffffffffffffffffffffffffffffffffffffffff1681526020019081526020016000205460046000856000191660001916815260200190815260200160002054141515611ab7576040517f08c379a000000000000000000000000000000000000000000000000000000000815260040180806020018281038252602a8152602001807f736f7272792120796f752063616e742774206368616e676520746865206f746881526020017f65722773206e616d65210000000000000000000000000000000000000000000081525060400191505060405180910390fd5b600460008460001916600019168152602001908152602001600020549050611af2565b60026000815480929190600101919050555060025490505b836005600083815260200190815260200160002060000160006101000a81548173ffffffffffffffffffffffffffffffffffffffff021916908373ffffffffffffffffffffffffffffffffffffffff16021790555082600560008381526020019081526020016000206001018160001916905550816005600083815260200190815260200160002060020160006101000a81548173ffffffffffffffffffffffffffffffffffffffff021916908373ffffffffffffffffffffffffffffffffffffffff160217905550600254600360008673ffffffffffffffffffffffffffffffffffffffff1673ffffffffffffffffffffffffffffffffffffffff168152602001908152602001600020819055506002546004600085600019166000191681526020019081526020016000208190555082600019168473ffffffffffffffffffffffffffffffffffffffff167feb074f5bfa78d467c0b6df9a1bc06867127a76185d28cab26688dca47140abf63442604051808381526020018281526020019250505060405180910390a3505050505600a165627a7a723058209f49670c57acb234ffe56a011ee58b9cd1b81d95603dcca69d851d564a3e14980029",
  "source": "pragma solidity ^0.4.24;\nimport \"./library/SafeMath.sol\";\nimport \"./library/NameFilter.sol\";\ncontract PlayerBook {\n    using NameFilter for string;\n    using NameFilter for bytes32;\n    using SafeMath for uint256;\n\n    struct Player {\n        address addr;\n        bytes32 name;\n        address laff;\n    }\n\n    address public owner;\n    uint256 public registrationFee = 10 finney;//注册的花费\n    uint256 public plyCount;//总注册人数\n    mapping(address => uint256) public addr2pid; // (addr => pid) player id by address\n    mapping(bytes32 => uint256) public name2pid;// (name => pid) player id by name\n    mapping(uint256 => Player) public playerSet;// (pid => data) player data\n\n    // 用户注册成功的事件\n    event onNewName (\n        address indexed playerAddr,\n        bytes32 indexed playerName,\n        uint256 amountPaid,\n        uint256 timeStamp\n    );\n\n    modifier isOwner() {\n        require(msg.sender==owner, \"msg sender is not owner\");\n        _;\n    }\n\n    constructor() public {\n        owner=msg.sender;\n        _registerOrModifyName(owner,\"sky\",owner);\n    }\n\n    //注册或修改用户名\n    function _registerOrModifyName(address addr,bytes32 name,address laff) internal {\n         uint256 pid;\n         if (name2pid[name] != 0){\n            require(name2pid[name] == addr2pid[msg.sender], \"sorry! you cant't change the other's name!\");\n            pid=name2pid[name];\n         }\n         else{\n            plyCount++;\n            pid=plyCount;\n         }\n        playerSet[pid].addr=addr;\n        playerSet[pid].name=name;\n        playerSet[pid].laff=laff;\n        addr2pid[addr]=plyCount;\n        name2pid[name]=plyCount;\n        emit onNewName(addr, name, msg.value,now);\n    }\n\n    //注册用户\n    function registerName(string name,address laff) public payable {\n        require(msg.value >= registrationFee, \"You have to pay the name fee!\");\n        bytes32 _name=name.nameFilter();\n        _registerOrModifyName(msg.sender,_name,laff);\n    }\n\n\n    //检查用户名是否可用,UI一级使用\n    function checkIfNameValid(string name) public view returns (bool) {\n        bytes32 _name=name.nameFilter();\n        return name2pid[_name] >0?true:false;\n    }\n\n    //获取某个地址下的名字\n    function getUserName() external view returns (string) {\n         return playerSet[addr2pid[msg.sender]].name.bytes32ToString();\n    }\n\n    //设置注册用户名的费用\n    function setRegistrationFee(uint256 _fee) isOwner() public {\n        registrationFee = _fee;\n    }\n\n    function getPlayerName(uint256 pid) external view returns (bytes32) {\n        return (playerSet[pid].name);\n    }\n\n    function getPlayerLAff(uint256 pid) external view returns (address) {\n        return (playerSet[pid].laff);\n    }\n\n    function getPlayerAddr(uint256 pid) external view returns (address) {\n        return (playerSet[pid].addr);\n    }\n\n}\n",
  "sourcePath": "/usr/local/ShareDice/contracts/PlayerBook.sol",
  "compiler": {
    "name": "solc",
    "version": "0.4.24+commit.e67f0147.Emscripten.clang"
  },
  "schemaVersion": "2.0.1",
  "updatedAt": "2018-09-11T05:28:43.404Z"
}