{
  "contractName": "PlayerBook",
  "abi": [
    {
      "constant": true,
      "inputs": [
        {
          "name": "",
          "type": "uint256"
        }
      ],
      "name": "playerSet",
      "outputs": [
        {
          "name": "addr",
          "type": "address"
        },
        {
          "name": "name",
          "type": "bytes32"
        },
        {
          "name": "laff",
          "type": "address"
        }
      ],
      "payable": false,
      "stateMutability": "view",
      "type": "function"
    },
    {
      "constant": true,
      "inputs": [],
      "name": "registrationFee",
      "outputs": [
        {
          "name": "",
          "type": "uint256"
        }
      ],
      "payable": false,
      "stateMutability": "view",
      "type": "function"
    },
    {
      "constant": true,
      "inputs": [],
      "name": "plyCount",
      "outputs": [
        {
          "name": "",
          "type": "uint256"
        }
      ],
      "payable": false,
      "stateMutability": "view",
      "type": "function"
    },
    {
      "constant": true,
      "inputs": [
        {
          "name": "",
          "type": "bytes32"
        }
      ],
      "name": "name2pid",
      "outputs": [
        {
          "name": "",
          "type": "uint256"
        }
      ],
      "payable": false,
      "stateMutability": "view",
      "type": "function"
    },
    {
      "constant": true,
      "inputs": [],
      "name": "owner",
      "outputs": [
        {
          "name": "",
          "type": "address"
        }
      ],
      "payable": false,
      "stateMutability": "view",
      "type": "function"
    },
    {
      "constant": true,
      "inputs": [
        {
          "name": "",
          "type": "address"
        }
      ],
      "name": "addr2pid",
      "outputs": [
        {
          "name": "",
          "type": "uint256"
        }
      ],
      "payable": false,
      "stateMutability": "view",
      "type": "function"
    },
    {
      "inputs": [],
      "payable": false,
      "stateMutability": "nonpayable",
      "type": "constructor"
    },
    {
      "anonymous": false,
      "inputs": [
        {
          "indexed": true,
          "name": "playerAddr",
          "type": "address"
        },
        {
          "indexed": true,
          "name": "playerName",
          "type": "bytes32"
        },
        {
          "indexed": false,
          "name": "amountPaid",
          "type": "uint256"
        },
        {
          "indexed": false,
          "name": "timeStamp",
          "type": "uint256"
        }
      ],
      "name": "onNewName",
      "type": "event"
    },
    {
      "constant": false,
      "inputs": [
        {
          "name": "name",
          "type": "string"
        },
        {
          "name": "laff",
          "type": "address"
        }
      ],
      "name": "registerName",
      "outputs": [],
      "payable": true,
      "stateMutability": "payable",
      "type": "function"
    },
    {
      "constant": true,
      "inputs": [
        {
          "name": "name",
          "type": "string"
        }
      ],
      "name": "checkIfNameValid",
      "outputs": [
        {
          "name": "",
          "type": "bool"
        }
      ],
      "payable": false,
      "stateMutability": "view",
      "type": "function"
    },
    {
      "constant": false,
      "inputs": [
        {
          "name": "_fee",
          "type": "uint256"
        }
      ],
      "name": "setRegistrationFee",
      "outputs": [],
      "payable": false,
      "stateMutability": "nonpayable",
      "type": "function"
    },
    {
      "constant": true,
      "inputs": [
        {
          "name": "pid",
          "type": "uint256"
        }
      ],
      "name": "getPlayerName",
      "outputs": [
        {
          "name": "",
          "type": "bytes32"
        }
      ],
      "payable": false,
      "stateMutability": "view",
      "type": "function"
    },
    {
      "constant": true,
      "inputs": [
        {
          "name": "pid",
          "type": "uint256"
        }
      ],
      "name": "getPlayerLAff",
      "outputs": [
        {
          "name": "",
          "type": "address"
        }
      ],
      "payable": false,
      "stateMutability": "view",
      "type": "function"
    },
    {
      "constant": true,
      "inputs": [
        {
          "name": "pid",
          "type": "uint256"
        }
      ],
      "name": "getPlayerAddr",
      "outputs": [
        {
          "name": "",
          "type": "address"
        }
      ],
      "payable": false,
      "stateMutability": "view",
      "type": "function"
    }
  ],
  "bytecode": "0x6080604052662386f26fc1000060015534801561001b57600080fd5b50336000806101000a81548173ffffffffffffffffffffffffffffffffffffffff021916908373ffffffffffffffffffffffffffffffffffffffff1602179055506100d86000809054906101000a900473ffffffffffffffffffffffffffffffffffffffff167f736b7900000000000000000000000000000000000000000000000000000000006000809054906101000a900473ffffffffffffffffffffffffffffffffffffffff166100dd640100000000026401000000009004565b6103c7565b6000806004600085600019166000191681526020019081526020016000205414151561021d57600360003373ffffffffffffffffffffffffffffffffffffffff1673ffffffffffffffffffffffffffffffffffffffff16815260200190815260200160002054600460008560001916600019168152602001908152602001600020541415156101fa576040517f08c379a000000000000000000000000000000000000000000000000000000000815260040180806020018281038252602a8152602001807f736f7272792120796f752063616e742774206368616e676520746865206f746881526020017f65722773206e616d65210000000000000000000000000000000000000000000081525060400191505060405180910390fd5b600460008460001916600019168152602001908152602001600020549050610235565b60026000815480929190600101919050555060025490505b836005600083815260200190815260200160002060000160006101000a81548173ffffffffffffffffffffffffffffffffffffffff021916908373ffffffffffffffffffffffffffffffffffffffff16021790555082600560008381526020019081526020016000206001018160001916905550816005600083815260200190815260200160002060020160006101000a81548173ffffffffffffffffffffffffffffffffffffffff021916908373ffffffffffffffffffffffffffffffffffffffff160217905550600254600360008673ffffffffffffffffffffffffffffffffffffffff1673ffffffffffffffffffffffffffffffffffffffff168152602001908152602001600020819055506002546004600085600019166000191681526020019081526020016000208190555082600019168473ffffffffffffffffffffffffffffffffffffffff167feb074f5bfa78d467c0b6df9a1bc06867127a76185d28cab26688dca47140abf63442604051808381526020018281526020019250505060405180910390a350505050565b611aaf806103d66000396000f3006080604052600436106100ba576000357c0100000000000000000000000000000000000000000000000000000000900463ffffffff16806305ffc877146100bf57806314c44e091461016e5780634d0d35ff146101995780634d2bf82d1461020657806357fabea7146102315780636c52660d146102765780637b59af16146102f757806382e37b2c146103735780638da5cb5b146103bc578063b9d870ef14610413578063c320c7271461046a578063e3c08adf14610497575b600080fd5b3480156100cb57600080fd5b506100ea60048036038101908080359060200190929190505050610504565b604051808473ffffffffffffffffffffffffffffffffffffffff1673ffffffffffffffffffffffffffffffffffffffff16815260200183600019166000191681526020018273ffffffffffffffffffffffffffffffffffffffff1673ffffffffffffffffffffffffffffffffffffffff168152602001935050505060405180910390f35b34801561017a57600080fd5b5061018361056e565b6040518082815260200191505060405180910390f35b3480156101a557600080fd5b506101c460048036038101908080359060200190929190505050610574565b604051808273ffffffffffffffffffffffffffffffffffffffff1673ffffffffffffffffffffffffffffffffffffffff16815260200191505060405180910390f35b34801561021257600080fd5b5061021b6105b4565b6040518082815260200191505060405180910390f35b34801561023d57600080fd5b5061026060048036038101908080356000191690602001909291905050506105ba565b6040518082815260200191505060405180910390f35b34801561028257600080fd5b506102dd600480360381019080803590602001908201803590602001908080601f01602080910402602001604051908101604052809392919081815260200183838082843782019150505050505091929192905050506105d2565b604051808215151515815260200191505060405180910390f35b610371600480360381019080803590602001908201803590602001908080601f0160208091040260200160405190810160405280939291908181526020018383808284378201915050505050509192919290803573ffffffffffffffffffffffffffffffffffffffff169060200190929190505050610615565b005b34801561037f57600080fd5b5061039e600480360381019080803590602001909291905050506106ac565b60405180826000191660001916815260200191505060405180910390f35b3480156103c857600080fd5b506103d16106cc565b604051808273ffffffffffffffffffffffffffffffffffffffff1673ffffffffffffffffffffffffffffffffffffffff16815260200191505060405180910390f35b34801561041f57600080fd5b50610454600480360381019080803573ffffffffffffffffffffffffffffffffffffffff1690602001909291905050506106f1565b6040518082815260200191505060405180910390f35b34801561047657600080fd5b5061049560048036038101908080359060200190929190505050610709565b005b3480156104a357600080fd5b506104c2600480360381019080803590602001909291905050506107d7565b604051808273ffffffffffffffffffffffffffffffffffffffff1673ffffffffffffffffffffffffffffffffffffffff16815260200191505060405180910390f35b60056020528060005260406000206000915090508060000160009054906101000a900473ffffffffffffffffffffffffffffffffffffffff16908060010154908060020160009054906101000a900473ffffffffffffffffffffffffffffffffffffffff16905083565b60015481565b60006005600083815260200190815260200160002060000160009054906101000a900473ffffffffffffffffffffffffffffffffffffffff169050919050565b60025481565b60046020528060005260406000206000915090505481565b6000806105de83610817565b90506000600460008360001916600019168152602001908152602001600020541161060a57600061060d565b60015b915050919050565b60006001543410151515610691576040517f08c379a000000000000000000000000000000000000000000000000000000000815260040180806020018281038252601d8152602001807f596f75206861766520746f2070617920746865206e616d65206665652100000081525060200191505060405180910390fd5b61069a83610817565b90506106a7338284611799565b505050565b600060056000838152602001908152602001600020600101549050919050565b6000809054906101000a900473ffffffffffffffffffffffffffffffffffffffff1681565b60036020528060005260406000206000915090505481565b6000809054906101000a900473ffffffffffffffffffffffffffffffffffffffff1673ffffffffffffffffffffffffffffffffffffffff163373ffffffffffffffffffffffffffffffffffffffff161415156107cd576040517f08c379a00000000000000000000000000000000000000000000000000000000081526004018080602001828103825260178152602001807f6d73672073656e646572206973206e6f74206f776e657200000000000000000081525060200191505060405180910390fd5b8060018190555050565b60006005600083815260200190815260200160002060020160009054906101000a900473ffffffffffffffffffffffffffffffffffffffff169050919050565b6000606060008060008086945084519350602084111580156108395750600084115b15156108d3576040517f08c379a000000000000000000000000000000000000000000000000000000000815260040180806020018281038252602a8152602001807f737472696e67206d757374206265206265747765656e203120616e642033322081526020017f636861726163746572730000000000000000000000000000000000000000000081525060400191505060405180910390fd5b60207f01000000000000000000000000000000000000000000000000000000000000000285600081518110151561090657fe5b9060200101517f010000000000000000000000000000000000000000000000000000000000000090047f0100000000000000000000000000000000000000000000000000000000000000027effffffffffffffffffffffffffffffffffffffffffffffffffffffffffffff191614158015610a21575060207f01000000000000000000000000000000000000000000000000000000000000000285600186038151811015156109b157fe5b9060200101517f010000000000000000000000000000000000000000000000000000000000000090047f0100000000000000000000000000000000000000000000000000000000000000027effffffffffffffffffffffffffffffffffffffffffffffffffffffffffffff191614155b1515610abb576040517f08c379a00000000000000000000000000000000000000000000000000000000081526004018080602001828103825260258152602001807f737472696e672063616e6e6f74207374617274206f7220656e6420776974682081526020017f737061636500000000000000000000000000000000000000000000000000000081525060400191505060405180910390fd5b60307f010000000000000000000000000000000000000000000000000000000000000002856000815181101515610aee57fe5b9060200101517f010000000000000000000000000000000000000000000000000000000000000090047f0100000000000000000000000000000000000000000000000000000000000000027effffffffffffffffffffffffffffffffffffffffffffffffffffffffffffff19161415610d8e5760787f010000000000000000000000000000000000000000000000000000000000000002856001815181101515610b9457fe5b9060200101517f010000000000000000000000000000000000000000000000000000000000000090047f0100000000000000000000000000000000000000000000000000000000000000027effffffffffffffffffffffffffffffffffffffffffffffffffffffffffffff191614151515610c77576040517f08c379a000000000000000000000000000000000000000000000000000000000815260040180806020018281038252601b8152602001807f737472696e672063616e6e6f742073746172742077697468203078000000000081525060200191505060405180910390fd5b60587f010000000000000000000000000000000000000000000000000000000000000002856001815181101515610caa57fe5b9060200101517f010000000000000000000000000000000000000000000000000000000000000090047f0100000000000000000000000000000000000000000000000000000000000000027effffffffffffffffffffffffffffffffffffffffffffffffffffffffffffff191614151515610d8d576040517f08c379a000000000000000000000000000000000000000000000000000000000815260040180806020018281038252601b8152602001807f737472696e672063616e6e6f742073746172742077697468203058000000000081525060200191505060405180910390fd5b5b600091505b838210156117095760407f0100000000000000000000000000000000000000000000000000000000000000028583815181101515610dcd57fe5b9060200101517f010000000000000000000000000000000000000000000000000000000000000090047f0100000000000000000000000000000000000000000000000000000000000000027effffffffffffffffffffffffffffffffffffffffffffffffffffffffffffff1916118015610ee35750605b7f0100000000000000000000000000000000000000000000000000000000000000028583815181101515610e7457fe5b9060200101517f010000000000000000000000000000000000000000000000000000000000000090047f0100000000000000000000000000000000000000000000000000000000000000027effffffffffffffffffffffffffffffffffffffffffffffffffffffffffffff1916105b15610fde5760208583815181101515610ef857fe5b9060200101517f010000000000000000000000000000000000000000000000000000000000000090047f0100000000000000000000000000000000000000000000000000000000000000027f01000000000000000000000000000000000000000000000000000000000000009004017f0100000000000000000000000000000000000000000000000000000000000000028583815181101515610f9757fe5b9060200101907effffffffffffffffffffffffffffffffffffffffffffffffffffffffffffff1916908160001a905350600015158315151415610fd957600192505b6116fc565b60207f010000000000000000000000000000000000000000000000000000000000000002858381518110151561101057fe5b9060200101517f010000000000000000000000000000000000000000000000000000000000000090047f0100000000000000000000000000000000000000000000000000000000000000027effffffffffffffffffffffffffffffffffffffffffffffffffffffffffffff191614806111cd575060607f01000000000000000000000000000000000000000000000000000000000000000285838151811015156110b657fe5b9060200101517f010000000000000000000000000000000000000000000000000000000000000090047f0100000000000000000000000000000000000000000000000000000000000000027effffffffffffffffffffffffffffffffffffffffffffffffffffffffffffff19161180156111cc5750607b7f010000000000000000000000000000000000000000000000000000000000000002858381518110151561115d57fe5b9060200101517f010000000000000000000000000000000000000000000000000000000000000090047f0100000000000000000000000000000000000000000000000000000000000000027effffffffffffffffffffffffffffffffffffffffffffffffffffffffffffff1916105b5b8061131c5750602f7f010000000000000000000000000000000000000000000000000000000000000002858381518110151561120557fe5b9060200101517f010000000000000000000000000000000000000000000000000000000000000090047f0100000000000000000000000000000000000000000000000000000000000000027effffffffffffffffffffffffffffffffffffffffffffffffffffffffffffff191611801561131b5750603a7f01000000000000000000000000000000000000000000000000000000000000000285838151811015156112ac57fe5b9060200101517f010000000000000000000000000000000000000000000000000000000000000090047f0100000000000000000000000000000000000000000000000000000000000000027effffffffffffffffffffffffffffffffffffffffffffffffffffffffffffff1916105b5b15156113b6576040517f08c379a00000000000000000000000000000000000000000000000000000000081526004018080602001828103825260228152602001807f737472696e6720636f6e7461696e7320696e76616c696420636861726163746581526020017f727300000000000000000000000000000000000000000000000000000000000081525060400191505060405180910390fd5b60207f01000000000000000000000000000000000000000000000000000000000000000285838151811015156113e857fe5b9060200101517f010000000000000000000000000000000000000000000000000000000000000090047f0100000000000000000000000000000000000000000000000000000000000000027effffffffffffffffffffffffffffffffffffffffffffffffffffffffffffff1916141561159a5760207f010000000000000000000000000000000000000000000000000000000000000002856001840181518110151561149057fe5b9060200101517f010000000000000000000000000000000000000000000000000000000000000090047f0100000000000000000000000000000000000000000000000000000000000000027effffffffffffffffffffffffffffffffffffffffffffffffffffffffffffff191614151515611599576040517f08c379a00000000000000000000000000000000000000000000000000000000081526004018080602001828103825260288152602001807f737472696e672063616e6e6f7420636f6e7461696e20636f6e7365637574697681526020017f652073706163657300000000000000000000000000000000000000000000000081525060400191505060405180910390fd5b5b600015158315151480156116f1575060307f01000000000000000000000000000000000000000000000000000000000000000285838151811015156115db57fe5b9060200101517f010000000000000000000000000000000000000000000000000000000000000090047f0100000000000000000000000000000000000000000000000000000000000000027effffffffffffffffffffffffffffffffffffffffffffffffffffffffffffff191610806116f0575060397f010000000000000000000000000000000000000000000000000000000000000002858381518110151561168157fe5b9060200101517f010000000000000000000000000000000000000000000000000000000000000090047f0100000000000000000000000000000000000000000000000000000000000000027effffffffffffffffffffffffffffffffffffffffffffffffffffffffffffff1916115b5b156116fb57600192505b5b8180600101925050610d93565b60011515831515141515611785576040517f08c379a000000000000000000000000000000000000000000000000000000000815260040180806020018281038252601d8152602001807f737472696e672063616e6e6f74206265206f6e6c79206e756d6265727300000081525060200191505060405180910390fd5b602085015190508095505050505050919050565b600080600460008560001916600019168152602001908152602001600020541415156118d957600360003373ffffffffffffffffffffffffffffffffffffffff1673ffffffffffffffffffffffffffffffffffffffff16815260200190815260200160002054600460008560001916600019168152602001908152602001600020541415156118b6576040517f08c379a000000000000000000000000000000000000000000000000000000000815260040180806020018281038252602a8152602001807f736f7272792120796f752063616e742774206368616e676520746865206f746881526020017f65722773206e616d65210000000000000000000000000000000000000000000081525060400191505060405180910390fd5b6004600084600019166000191681526020019081526020016000205490506118f1565b60026000815480929190600101919050555060025490505b836005600083815260200190815260200160002060000160006101000a81548173ffffffffffffffffffffffffffffffffffffffff021916908373ffffffffffffffffffffffffffffffffffffffff16021790555082600560008381526020019081526020016000206001018160001916905550816005600083815260200190815260200160002060020160006101000a81548173ffffffffffffffffffffffffffffffffffffffff021916908373ffffffffffffffffffffffffffffffffffffffff160217905550600254600360008673ffffffffffffffffffffffffffffffffffffffff1673ffffffffffffffffffffffffffffffffffffffff168152602001908152602001600020819055506002546004600085600019166000191681526020019081526020016000208190555082600019168473ffffffffffffffffffffffffffffffffffffffff167feb074f5bfa78d467c0b6df9a1bc06867127a76185d28cab26688dca47140abf63442604051808381526020018281526020019250505060405180910390a3505050505600a165627a7a723058203543ed4b18ac2585ff9410bac31751e43e5e4dab42a6ded23469773bfe5b014d0029",
  "source": "pragma solidity ^0.4.24;\nimport \"./library/SafeMath.sol\";\nimport \"./library/NameFilter.sol\";\ncontract PlayerBook {\n    using NameFilter for string;\n    using SafeMath for uint256;\n\n    struct Player {\n        address addr;\n        bytes32 name;\n        address laff;\n    }\n\n    address public owner;\n    uint256 public registrationFee = 10 finney;//注册的花费\n    uint256 public plyCount;//总注册人数\n    mapping(address => uint256) public addr2pid; // (addr => pid) player id by address\n    mapping(bytes32 => uint256) public name2pid;// (name => pid) player id by name\n    mapping(uint256 => Player) public playerSet;// (pid => data) player data\n\n    // 用户注册成功的事件\n    event onNewName (\n        address indexed playerAddr,\n        bytes32 indexed playerName,\n        uint256 amountPaid,\n        uint256 timeStamp\n    );\n\n    modifier isOwner() {\n        require(msg.sender==owner, \"msg sender is not owner\");\n        _;\n    }\n\n    constructor() public {\n        owner=msg.sender;\n        _registerOrModifyName(owner,\"sky\",owner);\n    }\n\n    //注册或修改用户名\n    function _registerOrModifyName(address addr,bytes32 name,address laff) internal {\n         uint256 pid;\n         if (name2pid[name] != 0){\n            require(name2pid[name] == addr2pid[msg.sender], \"sorry! you cant't change the other's name!\");\n            pid=name2pid[name];\n         }\n         else{\n            plyCount++;\n            pid=plyCount;\n         }\n        playerSet[pid].addr=addr;\n        playerSet[pid].name=name;\n        playerSet[pid].laff=laff;\n        addr2pid[addr]=plyCount;\n        name2pid[name]=plyCount;\n        emit onNewName(addr, name, msg.value,now);\n    }\n\n    //注册用户\n    function registerName(string name,address laff) public payable {\n        require(msg.value >= registrationFee, \"You have to pay the name fee!\");\n        bytes32 _name=name.nameFilter();\n        _registerOrModifyName(msg.sender,_name,laff);\n    }\n\n\n    //检查用户名是否可用,UI一级使用\n    function checkIfNameValid(string name) public view returns (bool) {\n        bytes32 _name=name.nameFilter();\n        return name2pid[_name] >0?true:false;\n    }\n\n    //设置注册用户名的费用\n    function setRegistrationFee(uint256 _fee) isOwner() public {\n        registrationFee = _fee;\n    }\n\n    function getPlayerName(uint256 pid) external view returns (bytes32) {\n        return (playerSet[pid].name);\n    }\n\n    function getPlayerLAff(uint256 pid) external view returns (address) {\n        return (playerSet[pid].laff);\n    }\n\n    function getPlayerAddr(uint256 pid) external view returns (address) {\n        return (playerSet[pid].addr);\n    }\n\n}\n",
  "sourcePath": "/Users/sky/Workplace/ShareDice/contracts/PlayerBook.sol",
  "compiler": {
    "name": "solc",
    "version": "0.4.24+commit.e67f0147.Emscripten.clang"
  },
  "schemaVersion": "2.0.1",
  "updatedAt": "2018-09-06T12:03:03.659Z"
}