{
  "contractName": "Random",
  "abi": [
    {
      "constant": false,
      "inputs": [
        {
          "name": "upper",
          "type": "uint64"
        }
      ],
      "name": "random",
      "outputs": [
        {
          "name": "randomNumber",
          "type": "uint64"
        }
      ],
      "payable": false,
      "stateMutability": "nonpayable",
      "type": "function"
    },
    {
      "constant": false,
      "inputs": [],
      "name": "getRandomSeed",
      "outputs": [
        {
          "name": "randomNumber",
          "type": "uint64"
        }
      ],
      "payable": false,
      "stateMutability": "nonpayable",
      "type": "function"
    }
  ],
  "bytecode": "0x608060405260008060006101000a81548167ffffffffffffffff021916908367ffffffffffffffff16021790555034801561003957600080fd5b5061038a806100496000396000f30060806040526004361061004c576000357c0100000000000000000000000000000000000000000000000000000000900463ffffffff1680631a1a79931461005157806393b3cc6b146100b0575b600080fd5b34801561005d57600080fd5b50610086600480360381019080803567ffffffffffffffff1690602001909291905050506100ef565b604051808267ffffffffffffffff1667ffffffffffffffff16815260200191505060405180910390f35b3480156100bc57600080fd5b506100c5610237565b604051808267ffffffffffffffff1667ffffffffffffffff16815260200191505060405180910390f35b600043406000809054906101000a900467ffffffffffffffff16426040516020018084600019166000191681526020018367ffffffffffffffff1667ffffffffffffffff16780100000000000000000000000000000000000000000000000002815260080182815260200193505050506040516020818303038152906040526040518082805190602001908083835b6020831015156101a3578051825260208201915060208101905060208303925061017e565b6001836020036101000a0380198251168184511680821785525050505050509050019150506040518091039020600190046000806101000a81548167ffffffffffffffff021916908367ffffffffffffffff1602179055508167ffffffffffffffff166000809054906101000a900467ffffffffffffffff1667ffffffffffffffff1681151561022f57fe5b069050919050565b600043406000809054906101000a900467ffffffffffffffff16426040516020018084600019166000191681526020018367ffffffffffffffff1667ffffffffffffffff16780100000000000000000000000000000000000000000000000002815260080182815260200193505050506040516020818303038152906040526040518082805190602001908083835b6020831015156102eb57805182526020820191506020810190506020830392506102c6565b6001836020036101000a0380198251168184511680821785525050505050509050019150506040518091039020600190046000806101000a81548167ffffffffffffffff021916908367ffffffffffffffff1602179055506000809054906101000a900467ffffffffffffffff169050905600a165627a7a72305820b843989c2e1381ac15aadcadf089c12bcaf93d8e849118330c97c8107ad978940029",
  "source": "pragma solidity ^0.4.18;\n\ncontract Random {\n    uint64 _seed = 0;\n    function random(uint64 upper) public returns (uint64 randomNumber) {\n        _seed=uint64(keccak256(abi.encodePacked(blockhash(block.number),_seed,now)));\n        return _seed % upper;\n    }\n\n    function getRandomSeed() public returns (uint64 randomNumber) {\n        _seed=uint64(keccak256(abi.encodePacked(blockhash(block.number),_seed,now)));\n        return _seed;\n    }\n}\n",
  "sourcePath": "/usr/local/ShareDice/contracts/Random.sol",
  "compiler": {
    "name": "solc",
    "version": "0.4.24+commit.e67f0147.Emscripten.clang"
  },
  "schemaVersion": "2.0.1",
  "updatedAt": "2018-09-11T05:28:43.393Z"
}