{
  "contractName": "ShareDiceGame",
  "abi": [
    {
      "constant": true,
      "inputs": [],
      "name": "roundCount",
      "outputs": [
        {
          "name": "",
          "type": "uint256"
        }
      ],
      "payable": false,
      "stateMutability": "view",
      "type": "function"
    },
    {
      "constant": true,
      "inputs": [],
      "name": "commissionRate",
      "outputs": [
        {
          "name": "",
          "type": "uint8"
        }
      ],
      "payable": false,
      "stateMutability": "view",
      "type": "function"
    },
    {
      "constant": true,
      "inputs": [],
      "name": "roundInterval",
      "outputs": [
        {
          "name": "",
          "type": "uint256"
        }
      ],
      "payable": false,
      "stateMutability": "view",
      "type": "function"
    },
    {
      "constant": true,
      "inputs": [],
      "name": "owner",
      "outputs": [
        {
          "name": "",
          "type": "address"
        }
      ],
      "payable": false,
      "stateMutability": "view",
      "type": "function"
    },
    {
      "constant": true,
      "inputs": [
        {
          "name": "",
          "type": "uint256"
        }
      ],
      "name": "RoundSet",
      "outputs": [
        {
          "name": "playerCount",
          "type": "uint256"
        },
        {
          "name": "totalTicketVol",
          "type": "uint256"
        },
        {
          "name": "startTime",
          "type": "uint256"
        },
        {
          "name": "winCount",
          "type": "uint256"
        },
        {
          "name": "winDiceNum",
          "type": "uint8"
        },
        {
          "name": "is_activate",
          "type": "bool"
        }
      ],
      "payable": false,
      "stateMutability": "view",
      "type": "function"
    },
    {
      "constant": true,
      "inputs": [],
      "name": "baseUnit",
      "outputs": [
        {
          "name": "",
          "type": "uint256"
        }
      ],
      "payable": false,
      "stateMutability": "view",
      "type": "function"
    },
    {
      "inputs": [
        {
          "name": "randomAddr",
          "type": "address"
        }
      ],
      "payable": false,
      "stateMutability": "nonpayable",
      "type": "constructor"
    },
    {
      "anonymous": false,
      "inputs": [
        {
          "indexed": true,
          "name": "player",
          "type": "address"
        },
        {
          "indexed": false,
          "name": "roundNum",
          "type": "uint256"
        },
        {
          "indexed": false,
          "name": "joinTime",
          "type": "uint256"
        },
        {
          "indexed": false,
          "name": "ticketVol",
          "type": "uint256"
        }
      ],
      "name": "JoinEvent",
      "type": "event"
    },
    {
      "anonymous": false,
      "inputs": [
        {
          "indexed": true,
          "name": "player",
          "type": "address"
        },
        {
          "indexed": false,
          "name": "roundNum",
          "type": "uint256"
        },
        {
          "indexed": false,
          "name": "ticketVol",
          "type": "uint256"
        },
        {
          "indexed": false,
          "name": "winCount",
          "type": "uint256"
        },
        {
          "indexed": false,
          "name": "diceSeries",
          "type": "uint256"
        },
        {
          "indexed": false,
          "name": "payout",
          "type": "uint256"
        },
        {
          "indexed": false,
          "name": "winDiceNum",
          "type": "uint8"
        }
      ],
      "name": "ResultEvent",
      "type": "event"
    },
    {
      "constant": false,
      "inputs": [],
      "name": "kill",
      "outputs": [],
      "payable": false,
      "stateMutability": "nonpayable",
      "type": "function"
    },
    {
      "constant": true,
      "inputs": [],
      "name": "getRoundCount",
      "outputs": [
        {
          "name": "",
          "type": "uint256"
        }
      ],
      "payable": false,
      "stateMutability": "view",
      "type": "function"
    },
    {
      "constant": true,
      "inputs": [
        {
          "name": "roundNum",
          "type": "uint256"
        }
      ],
      "name": "getRoundInfo",
      "outputs": [
        {
          "name": "",
          "type": "uint256"
        },
        {
          "name": "",
          "type": "uint256"
        },
        {
          "name": "",
          "type": "uint256"
        },
        {
          "name": "",
          "type": "uint256"
        },
        {
          "name": "",
          "type": "bool"
        }
      ],
      "payable": false,
      "stateMutability": "view",
      "type": "function"
    },
    {
      "constant": false,
      "inputs": [
        {
          "name": "roundNum",
          "type": "uint256"
        },
        {
          "name": "ticketVol",
          "type": "uint256"
        }
      ],
      "name": "join",
      "outputs": [],
      "payable": true,
      "stateMutability": "payable",
      "type": "function"
    },
    {
      "constant": false,
      "inputs": [
        {
          "name": "roundNum",
          "type": "uint256"
        }
      ],
      "name": "settleRoundResult",
      "outputs": [],
      "payable": true,
      "stateMutability": "payable",
      "type": "function"
    }
  ],
  "bytecode": "0x6080604052662386f26fc100006004556102586005556005600660006101000a81548160ff021916908360ff16021790555034801561003d57600080fd5b50604051602080611068833981018060405281019080805190602001909291905050506000336000806101000a81548173ffffffffffffffffffffffffffffffffffffffff021916908373ffffffffffffffffffffffffffffffffffffffff16021790555081600160006101000a81548173ffffffffffffffffffffffffffffffffffffffff021916908373ffffffffffffffffffffffffffffffffffffffff160217905550600090505b600381101561011c5761010f60055482024201610123640100000000026401000000009004565b80806001019150506100e8565b5050610186565b6003600081548092919060010191905055508060026000600354815260200190815260200160002060030181905550600160026000600354815260200190815260200160002060050160016101000a81548160ff02191690831515021790555050565b610ed3806101956000396000f3006080604052600436106100af576000357c0100000000000000000000000000000000000000000000000000000000900463ffffffff168063127f0b3f146100b457806341c0e1b5146100df5780635ea1d6f8146100f65780636de7da781461012757806379e66b461461015257806382f8b6e91461017c57806388c3ffb0146101a75780638da5cb5b14610208578063917d6acb1461025f578063c2930f91146102cd578063d800662a146102f8575b600080fd5b3480156100c057600080fd5b506100c9610318565b6040518082815260200191505060405180910390f35b3480156100eb57600080fd5b506100f461031e565b005b34801561010257600080fd5b5061010b610442565b604051808260ff1660ff16815260200191505060405180910390f35b34801561013357600080fd5b5061013c610455565b6040518082815260200191505060405180910390f35b61017a600480360381019080803590602001909291908035906020019092919050505061045f565b005b34801561018857600080fd5b506101916105f1565b6040518082815260200191505060405180910390f35b3480156101b357600080fd5b506101d2600480360381019080803590602001909291905050506105f7565b60405180868152602001858152602001848152602001838152602001821515151581526020019550505050505060405180910390f35b34801561021457600080fd5b5061021d610687565b604051808273ffffffffffffffffffffffffffffffffffffffff1673ffffffffffffffffffffffffffffffffffffffff16815260200191505060405180910390f35b34801561026b57600080fd5b5061028a600480360381019080803590602001909291905050506106ac565b604051808781526020018681526020018581526020018481526020018360ff1660ff16815260200182151515158152602001965050505050505060405180910390f35b3480156102d957600080fd5b506102e2610702565b6040518082815260200191505060405180910390f35b61031660048036038101908080359060200190929190505050610708565b005b60035481565b6000809054906101000a900473ffffffffffffffffffffffffffffffffffffffff1673ffffffffffffffffffffffffffffffffffffffff163373ffffffffffffffffffffffffffffffffffffffff16141515610408576040517f08c379a00000000000000000000000000000000000000000000000000000000081526004018080602001828103825260258152602001807f4f6e6c7920746865206f776e65722063616e206b696c6c207468697320636f6e81526020017f747261637400000000000000000000000000000000000000000000000000000081525060400191505060405180910390fd5b6000809054906101000a900473ffffffffffffffffffffffffffffffffffffffff1673ffffffffffffffffffffffffffffffffffffffff16ff5b600660009054906101000a900460ff1681565b6000600354905090565b600080600454830234101515156104de576040517f08c379a00000000000000000000000000000000000000000000000000000000081526004018080602001828103825260118152602001807f6e6f7420656e6f7567682065746865722100000000000000000000000000000081525060200191505060405180910390fd5b6002600085815260200190815260200160002091508160010160008154809291906001019190505550816000016000836001015481526020019081526020016000209050338160000160006101000a81548173ffffffffffffffffffffffffffffffffffffffff021916908373ffffffffffffffffffffffffffffffffffffffff1602179055504281600101819055508281600201819055508282600201600082825401925050819055503373ffffffffffffffffffffffffffffffffffffffff167fb7f886a5f2f8c0884bd6e8e95792f4cb5b7300b1200914e97c46f9abd8cf50f28583600101548660405180848152602001838152602001828152602001935050505060405180910390a250505050565b60055481565b600080600080600080600080600260008a81526020019081526020016000209250600090505b8260010154811015610653578260000160008281526020019081526020016000206002015482019150808060010191505061061d565b8883600301548460010154848660050160019054906101000a900460ff169750975097509750975050505091939590929450565b6000809054906101000a900473ffffffffffffffffffffffffffffffffffffffff1681565b60026020528060005260406000206000915090508060010154908060020154908060030154908060040154908060050160009054906101000a900460ff16908060050160019054906101000a900460ff16905086565b60045481565b600080600080600080600260008881526020019081526020016000209550600554866003015442031015801561074c57508560050160019054906101000a900460ff165b15156107e6576040517f08c379a00000000000000000000000000000000000000000000000000000000081526004018080602001828103825260278152602001807f536574746c696e6720726f756e6420636f6e646974696f6e206973206e6f742081526020017f736174696679210000000000000000000000000000000000000000000000000081525060400191505060405180910390fd5b6107ef86610abd565b6107f886610d5a565b6103e8600660009054906101000a900460ff1660ff166103e80361ffff166004548860020154020281151561082957fe5b04945060008660050160016101000a81548160ff021916908315150217905550600091505b8560010154821015610aab5760009250600090505b856000016000838152602001908152602001600020600201548110156108d35780600a0a866000016000848152602001908152602001600020600401600083815260200190815260200160002060009054906101000a900460ff1660ff1602830192508080600101915050610863565b60008660000160008481526020019081526020016000206003015411156109a457856004015486600001600084815260200190815260200160002060030154860281151561091d57fe5b04935085600001600083815260200190815260200160002060000160009054906101000a900473ffffffffffffffffffffffffffffffffffffffff1673ffffffffffffffffffffffffffffffffffffffff166108fc859081150290604051600060405180830381858888f1935050505015801561099e573d6000803e3d6000fd5b506109a9565b600093505b85600001600083815260200190815260200160002060000160009054906101000a900473ffffffffffffffffffffffffffffffffffffffff1673ffffffffffffffffffffffffffffffffffffffff167f529be6069a8cf9ad95c512df469542bc55e1d1fd1372cac1759966217276501188886000016000868152602001908152602001600020600201548960000160008781526020019081526020016000206003015487898c60050160009054906101000a900460ff16604051808781526020018681526020018581526020018481526020018381526020018260ff1660ff168152602001965050505050505060405180910390a2818060010192505061084e565b610ab442610e44565b50505050505050565b6000806000806000600160009054906101000a900473ffffffffffffffffffffffffffffffffffffffff1673ffffffffffffffffffffffffffffffffffffffff166393b3cc6b6040518163ffffffff167c0100000000000000000000000000000000000000000000000000000000028152600401602060405180830381600087803b158015610b4b57600080fd5b505af1158015610b5f573d6000803e3d6000fd5b505050506040513d6020811015610b7557600080fd5b81019080805190602001909291905050509450600091505b8560010154821015610d3557600090505b85600001600083815260200190815260200160002060020154811015610d2857434085876000016000858152602001908152602001600020600101546040516020018084600019166000191681526020018367ffffffffffffffff1667ffffffffffffffff16780100000000000000000000000000000000000000000000000002815260080182815260200193505050506040516020818303038152906040526040518082805190602001908083835b602083101515610c735780518252602082019150602081019050602083039250610c4e565b6001836020036101000a0380198251168184511680821785525050505050509050019150506040518091039020600190049450600160068667ffffffffffffffff16811515610cbe57fe5b0601925082866000016000848152602001908152602001600020600401600083815260200190815260200160002060006101000a81548160ff021916908360ff1602179055508360ff168360ff1611610d175783610d19565b825b93508080600101915050610b9e565b8180600101925050610b8d565b838660050160006101000a81548160ff021916908360ff160217905550505050505050565b600080600080600091505b8460010154821015610e345760009350600090505b84600001600083815260200190815260200160002060020154811015610e05578460050160009054906101000a900460ff1660ff16856000016000848152602001908152602001600020600401600083815260200190815260200160002060009054906101000a900460ff1660ff161415610df85783806001019450505b8080600101915050610d7a565b838560000160008481526020019081526020016000206003018190555083830192508180600101925050610d65565b8285600401819055505050505050565b6003600081548092919060010191905055508060026000600354815260200190815260200160002060030181905550600160026000600354815260200190815260200160002060050160016101000a81548160ff021916908315150217905550505600a165627a7a723058208c7a4fadfca854db2052c93119a773bbfcbcb0968d104fcbc698552844d1f4f70029",
  "source": "pragma solidity ^0.4.18;\nimport \"./Random.sol\";\nimport \"./DiceDataStore.sol\";\n\ncontract ShareDiceGame {\n    address public owner;//合约所有者\n    Random RDN;//随机合约\n\n    //每期的参与者情况\n    struct PalyerBetInfo {\n        address player;//参与者地址\n        uint256 joinTime;//加入时间\n        uint256 ticketVol;//份数            \n        uint256 winCount;//胜出的数量\n        mapping(uint256=>uint8) resultSet;//每个骰子的点数\n    }\n\n    //每期的情况\n    struct RoundInfo {\n        mapping(uint256=>PalyerBetInfo) playerBetInfoSet;//每期包括的参与者\n        uint256 playerCount;//参与者数量\n        uint256 totalTicketVol;//总份数\n        uint256 startTime;//开始时间\n        uint256 winCount;//获胜者数量\n        uint8 winDiceNum;//骰子最大的点数\n        bool is_activate;//是否可用的\n    }\n\n    //总表\n    mapping(uint256 => RoundInfo) public RoundSet; \n    uint256 public roundCount;//一共开了多少轮\n    uint256 public baseUnit=0.01 ether;//每份的价格\n    uint256 public roundInterval=10 minutes;//每期的间隔\n    uint8 public commissionRate=5;//千分之五费率\n\n\n    //使用事件记录每个玩家参与过的期数,或通知前端加入成功\n    event JoinEvent(\n        address indexed player,//参与者地址\n        uint256 roundNum,//参与第几期\n        uint256 joinTime,//加入时间\n        uint256 ticketVol//份数            \n    );\n\n    //结果通知\n    event ResultEvent(\n        address indexed player,//参与者地址\n        uint256 roundNum,//参与第几期\n        uint256 ticketVol,//买入的份数\n        uint256 winCount,//多少个赢了\n        uint256 diceSeries,//骰子的随机序列\n        uint256 payout,//支付额\n        uint8 winDiceNum //获胜骰子最大的点数\n    );\n\n    modifier isOwner() {\n        require(msg.sender==owner, \"msg sender is not owner\");\n        _;\n    }\n\n    constructor(address randomAddr) public {\n        owner=msg.sender;\n        RDN=Random(randomAddr);\n        for(uint256 i=0;i<3;i++){\n            newRound(now+i*roundInterval);\n        }\n    }\n\n    function kill() external {\n        require(msg.sender==owner, \"Only the owner can kill this contract\");\n        selfdestruct(owner);\n    }\n\n    //新开一期\n    function newRound(uint256 startTime) private {\n        roundCount++;\n        RoundSet[roundCount].startTime=startTime;\n        RoundSet[roundCount].is_activate=true;\n    }\n\n    /**获取当前总期数**/\n    function getRoundCount() external view returns(uint256){\n        return roundCount;\n    }\n\n    /**获取某一期的信息\n      返回 期数，开始时间，参与者数量，总份数，此期是否活跃\n    **/\n    function getRoundInfo(uint256 roundNum) external view returns(uint256,uint256,uint256,uint256,bool){\n        RoundInfo storage round=RoundSet[roundNum];\n        uint256 ticketCount;\n        for(uint256 i=0;i<round.playerCount;i++){\n            ticketCount+=round.playerBetInfoSet[i].ticketVol;\n        }\n        return (roundNum,round.startTime,round.playerCount,ticketCount,round.is_activate);\n    }\n\n    //加入到\n    function join(uint256 roundNum,uint256 ticketVol) external payable {\n        require(msg.value>=ticketVol*baseUnit,\"not enough ether!\");\n        RoundInfo storage round=RoundSet[roundNum];\n        round.playerCount++;\n        PalyerBetInfo storage plrBetInfo=round.playerBetInfoSet[round.playerCount];\n        plrBetInfo.player=msg.sender;\n        plrBetInfo.joinTime=now;\n        plrBetInfo.ticketVol=ticketVol;\n        round.totalTicketVol+=ticketVol;\n        emit JoinEvent(msg.sender,roundNum,plrBetInfo.joinTime,ticketVol);\n    }\n\n\n    //开奖\n    function settleRoundResult(uint256 roundNum) external payable {\n        RoundInfo storage round=RoundSet[roundNum];\n        require(now-round.startTime>=roundInterval && round.is_activate,'Settling round condition is not satify!');\n        genenralRandomDice(round);\n        calcWinCount(round);\n        uint256 fundPool= round.totalTicketVol*baseUnit*(1000-commissionRate)/1000;\n        round.is_activate=false;\n        uint256 payout;\n        uint256 diceSeries;\n        for(uint i=0;i<round.playerCount;i++){//并支付相应的奖金\n            diceSeries=0;\n            for(uint j=0;j<round.playerBetInfoSet[i].ticketVol;j++){\n                diceSeries+=round.playerBetInfoSet[i].resultSet[j]*10**j;\n            }\n            if(round.playerBetInfoSet[i].winCount>0){\n                payout=fundPool*round.playerBetInfoSet[i].winCount/round.winCount;\n                round.playerBetInfoSet[i].player.transfer(payout);//支付奖金\n            }else{\n                payout=0;\n            }\n            emit ResultEvent(round.playerBetInfoSet[i].player,roundNum,round.playerBetInfoSet[i].ticketVol,round.playerBetInfoSet[i].winCount,diceSeries,payout,round.winDiceNum);\n        }\n        newRound(now);\n    }\n\n    //统计每个人的输赢数\n    function calcWinCount(RoundInfo storage round) private {\n        uint256 winCount;\n        uint256 totalWinCount;\n        for(uint i=0;i<round.playerCount;i++){\n            winCount=0;\n            for(uint j=0;j<round.playerBetInfoSet[i].ticketVol;j++){\n                if(round.playerBetInfoSet[i].resultSet[j]==round.winDiceNum){\n                    winCount++;\n                }\n            }\n            round.playerBetInfoSet[i].winCount=winCount;\n            totalWinCount+=winCount;\n        }\n        round.winCount=totalWinCount;\n    }\n\n    //计算出随机骰子的结果\n    function genenralRandomDice(RoundInfo storage round) private {\n        uint64 seed=RDN.getRandomSeed();\n        uint8 maxDiceNum;\n        uint8 tempDiceNum;\n        for(uint i=0;i<round.playerCount;i++){//生成随机结果，并记录最大的值\n            for(uint j=0;j<round.playerBetInfoSet[i].ticketVol;j++){\n                seed=uint64(keccak256(abi.encodePacked(blockhash(block.number),seed,round.playerBetInfoSet[i].joinTime)));\n                tempDiceNum=uint8(seed%6)+1;\n                round.playerBetInfoSet[i].resultSet[j]=tempDiceNum;\n                maxDiceNum=tempDiceNum>maxDiceNum?tempDiceNum:maxDiceNum;\n            }\n        }\n        round.winDiceNum=maxDiceNum;\n    }\n\n}\n\n",
  "sourcePath": "/Users/sky/Workplace/ShareDice/contracts/ShareDiceGame.sol",
  "compiler": {
    "name": "solc",
    "version": "0.4.24+commit.e67f0147.Emscripten.clang"
  },
  "schemaVersion": "2.0.1",
  "updatedAt": "2018-09-08T04:04:50.857Z"
}