{
  "contractName": "ShareDiceGame",
  "abi": [
    {
      "constant": true,
      "inputs": [
        {
          "name": "",
          "type": "address"
        },
        {
          "name": "",
          "type": "uint256"
        }
      ],
      "name": "agentToRooms",
      "outputs": [
        {
          "name": "playerLimit",
          "type": "uint256"
        },
        {
          "name": "stake",
          "type": "uint256"
        },
        {
          "name": "ptype",
          "type": "string"
        }
      ],
      "payable": false,
      "stateMutability": "view",
      "type": "function"
    },
    {
      "constant": true,
      "inputs": [],
      "name": "owner",
      "outputs": [
        {
          "name": "",
          "type": "address"
        }
      ],
      "payable": false,
      "stateMutability": "view",
      "type": "function"
    },
    {
      "inputs": [],
      "payable": false,
      "stateMutability": "nonpayable",
      "type": "constructor"
    },
    {
      "anonymous": false,
      "inputs": [
        {
          "indexed": true,
          "name": "_from",
          "type": "address"
        },
        {
          "indexed": false,
          "name": "_rollTime",
          "type": "uint256"
        }
      ],
      "name": "JoinSuccess",
      "type": "event"
    },
    {
      "constant": false,
      "inputs": [
        {
          "name": "agent",
          "type": "address"
        }
      ],
      "name": "addAgent",
      "outputs": [],
      "payable": false,
      "stateMutability": "nonpayable",
      "type": "function"
    },
    {
      "constant": true,
      "inputs": [],
      "name": "getAgents",
      "outputs": [
        {
          "name": "",
          "type": "address[]"
        }
      ],
      "payable": false,
      "stateMutability": "view",
      "type": "function"
    },
    {
      "constant": false,
      "inputs": [
        {
          "name": "agent",
          "type": "address"
        },
        {
          "name": "playerLimit",
          "type": "uint256"
        },
        {
          "name": "stake",
          "type": "uint256"
        },
        {
          "name": "ptype",
          "type": "string"
        }
      ],
      "name": "createRoom",
      "outputs": [
        {
          "name": "",
          "type": "uint256"
        }
      ],
      "payable": false,
      "stateMutability": "nonpayable",
      "type": "function"
    },
    {
      "constant": true,
      "inputs": [
        {
          "name": "agent",
          "type": "address"
        }
      ],
      "name": "getAgentRoomsCount",
      "outputs": [
        {
          "name": "",
          "type": "uint256"
        }
      ],
      "payable": false,
      "stateMutability": "view",
      "type": "function"
    },
    {
      "constant": true,
      "inputs": [
        {
          "name": "agent",
          "type": "address"
        },
        {
          "name": "roomNum",
          "type": "uint256"
        }
      ],
      "name": "getRoomPlayerLimit",
      "outputs": [
        {
          "name": "",
          "type": "uint256"
        }
      ],
      "payable": false,
      "stateMutability": "view",
      "type": "function"
    },
    {
      "constant": false,
      "inputs": [
        {
          "name": "agent",
          "type": "address"
        },
        {
          "name": "roomNum",
          "type": "uint256"
        },
        {
          "name": "shakeSeed",
          "type": "uint256"
        }
      ],
      "name": "readyPlay",
      "outputs": [],
      "payable": true,
      "stateMutability": "payable",
      "type": "function"
    },
    {
      "constant": true,
      "inputs": [
        {
          "name": "player",
          "type": "address"
        },
        {
          "name": "rollTime",
          "type": "uint256"
        },
        {
          "name": "shakeTotalSeed",
          "type": "uint256"
        }
      ],
      "name": "randDiceNum",
      "outputs": [
        {
          "name": "",
          "type": "uint8"
        }
      ],
      "payable": false,
      "stateMutability": "pure",
      "type": "function"
    },
    {
      "constant": false,
      "inputs": [
        {
          "name": "agent",
          "type": "address"
        },
        {
          "name": "roomNum",
          "type": "uint256"
        }
      ],
      "name": "roll",
      "outputs": [],
      "payable": false,
      "stateMutability": "nonpayable",
      "type": "function"
    },
    {
      "constant": true,
      "inputs": [
        {
          "name": "agent",
          "type": "address"
        },
        {
          "name": "roomNum",
          "type": "uint256"
        },
        {
          "name": "idx",
          "type": "uint256"
        }
      ],
      "name": "getLastGameResult",
      "outputs": [
        {
          "name": "",
          "type": "address"
        },
        {
          "name": "",
          "type": "uint256"
        },
        {
          "name": "",
          "type": "uint256"
        },
        {
          "name": "",
          "type": "uint8"
        }
      ],
      "payable": false,
      "stateMutability": "view",
      "type": "function"
    },
    {
      "constant": true,
      "inputs": [
        {
          "name": "agent",
          "type": "address"
        },
        {
          "name": "roomNum",
          "type": "uint256"
        }
      ],
      "name": "judge",
      "outputs": [
        {
          "name": "",
          "type": "address[]"
        }
      ],
      "payable": false,
      "stateMutability": "view",
      "type": "function"
    }
  ],
  "bytecode": "0x60806040523480156200001157600080fd5b50336000806101000a81548173ffffffffffffffffffffffffffffffffffffffff021916908373ffffffffffffffffffffffffffffffffffffffff1602179055506001732932b7a2355d6fecc4b5c0b6bd44cc31df247a2e90806001815401808255809150509060018203906000526020600020016000909192909190916101000a81548173ffffffffffffffffffffffffffffffffffffffff021916908373ffffffffffffffffffffffffffffffffffffffff160217905550506001732191ef87e392377ec08e7c08eb105ef5448eced590806001815401808255809150509060018203906000526020600020016000909192909190916101000a81548173ffffffffffffffffffffffffffffffffffffffff021916908373ffffffffffffffffffffffffffffffffffffffff160217905550506001730f4f2ac550a1b4e2280d04c21cea7ebd822934b590806001815401808255809150509060018203906000526020600020016000909192909190916101000a81548173ffffffffffffffffffffffffffffffffffffffff021916908373ffffffffffffffffffffffffffffffffffffffff160217905550506200024f60016000815481101515620001d557fe5b9060005260206000200160009054906101000a900473ffffffffffffffffffffffffffffffffffffffff16600260016040805190810160405280600281526020017f6f75000000000000000000000000000000000000000000000000000000000000815250620009a2640100000000026401000000009004565b50620002df600160008154811015156200026557fe5b9060005260206000200160009054906101000a900473ffffffffffffffffffffffffffffffffffffffff16600260016040805190810160405280600281526020017f6f75000000000000000000000000000000000000000000000000000000000000815250620009a2640100000000026401000000009004565b506200036f60016000815481101515620002f557fe5b9060005260206000200160009054906101000a900473ffffffffffffffffffffffffffffffffffffffff16600260016040805190810160405280600281526020017f6f75000000000000000000000000000000000000000000000000000000000000815250620009a2640100000000026401000000009004565b50620003fe6001808154811015156200038457fe5b9060005260206000200160009054906101000a900473ffffffffffffffffffffffffffffffffffffffff16600260016040805190810160405280600281526020017f6f75000000000000000000000000000000000000000000000000000000000000815250620009a2640100000000026401000000009004565b506200048d6001808154811015156200041357fe5b9060005260206000200160009054906101000a900473ffffffffffffffffffffffffffffffffffffffff16600360016040805190810160405280600281526020017f6f75000000000000000000000000000000000000000000000000000000000000815250620009a2640100000000026401000000009004565b506200051c600180815481101515620004a257fe5b9060005260206000200160009054906101000a900473ffffffffffffffffffffffffffffffffffffffff16600360016040805190810160405280600281526020017f6f75000000000000000000000000000000000000000000000000000000000000815250620009a2640100000000026401000000009004565b50620005ab6001808154811015156200053157fe5b9060005260206000200160009054906101000a900473ffffffffffffffffffffffffffffffffffffffff16600360016040805190810160405280600281526020017f6f75000000000000000000000000000000000000000000000000000000000000815250620009a2640100000000026401000000009004565b506200063b60016002815481101515620005c157fe5b9060005260206000200160009054906101000a900473ffffffffffffffffffffffffffffffffffffffff16600460016040805190810160405280600281526020017f6f75000000000000000000000000000000000000000000000000000000000000815250620009a2640100000000026401000000009004565b50620006cb600160028154811015156200065157fe5b9060005260206000200160009054906101000a900473ffffffffffffffffffffffffffffffffffffffff16600460016040805190810160405280600281526020017f6f75000000000000000000000000000000000000000000000000000000000000815250620009a2640100000000026401000000009004565b506200075b60016002815481101515620006e157fe5b9060005260206000200160009054906101000a900473ffffffffffffffffffffffffffffffffffffffff16600a60016040805190810160405280600281526020017f6f75000000000000000000000000000000000000000000000000000000000000815250620009a2640100000000026401000000009004565b50620007eb600160028154811015156200077157fe5b9060005260206000200160009054906101000a900473ffffffffffffffffffffffffffffffffffffffff16600a60016040805190810160405280600281526020017f6f75000000000000000000000000000000000000000000000000000000000000815250620009a2640100000000026401000000009004565b506200087b600160028154811015156200080157fe5b9060005260206000200160009054906101000a900473ffffffffffffffffffffffffffffffffffffffff16600a60016040805190810160405280600281526020017f6f75000000000000000000000000000000000000000000000000000000000000815250620009a2640100000000026401000000009004565b506200090b600160028154811015156200089157fe5b9060005260206000200160009054906101000a900473ffffffffffffffffffffffffffffffffffffffff16600a60016040805190810160405280600281526020017f6f75000000000000000000000000000000000000000000000000000000000000815250620009a2640100000000026401000000009004565b506200099b600160028154811015156200092157fe5b9060005260206000200160009054906101000a900473ffffffffffffffffffffffffffffffffffffffff16600a60016040805190810160405280600281526020017f6f75000000000000000000000000000000000000000000000000000000000000815250620009a2640100000000026401000000009004565b5062000b1b565b60006001600260008773ffffffffffffffffffffffffffffffffffffffff1673ffffffffffffffffffffffffffffffffffffffff16815260200190815260200160002060606040519081016040528087815260200186815260200185815250908060018154018082558091505090600182039060005260206000209060030201600090919290919091506000820151816000015560208201518160010155604082015181600201908051906020019062000a5e92919062000a6c565b505050039050949350505050565b828054600181600116156101000203166002900490600052602060002090601f016020900481019282601f1062000aaf57805160ff191683800117855562000ae0565b8280016001018555821562000ae0579182015b8281111562000adf57825182559160200191906001019062000ac2565b5b50905062000aef919062000af3565b5090565b62000b1891905b8082111562000b1457600081600090555060010162000afa565b5090565b90565b61162c8062000b2b6000396000f3006080604052600436106100ba576000357c0100000000000000000000000000000000000000000000000000000000900463ffffffff168063052e0312146100bf5780631c140103146101165780632105fd591461018757806344bcfb6d146101e857806384e79842146102bc5780638b406bb0146102ff5780638da5cb5b146103495780639b4f0425146103a0578063a286e84514610442578063c16ee820146104f4578063cb3613cf14610541578063eac3fda4146105f2575b600080fd5b3480156100cb57600080fd5b50610100600480360381019080803573ffffffffffffffffffffffffffffffffffffffff16906020019092919050505061065e565b6040518082815260200191505060405180910390f35b34801561012257600080fd5b5061016b600480360381019080803573ffffffffffffffffffffffffffffffffffffffff16906020019092919080359060200190929190803590602001909291905050506106aa565b604051808260ff1660ff16815260200191505060405180910390f35b34801561019357600080fd5b506101d2600480360381019080803573ffffffffffffffffffffffffffffffffffffffff1690602001909291908035906020019092919050505061079a565b6040518082815260200191505060405180910390f35b3480156101f457600080fd5b50610233600480360381019080803573ffffffffffffffffffffffffffffffffffffffff16906020019092919080359060200190929190505050610802565b6040518084815260200183815260200180602001828103825283818151815260200191508051906020019080838360005b8381101561027f578082015181840152602081019050610264565b50505050905090810190601f1680156102ac5780820380516001836020036101000a031916815260200191505b5094505050505060405180910390f35b3480156102c857600080fd5b506102fd600480360381019080803573ffffffffffffffffffffffffffffffffffffffff1690602001909291905050506108e0565b005b610347600480360381019080803573ffffffffffffffffffffffffffffffffffffffff1690602001909291908035906020019092919080359060200190929190505050610949565b005b34801561035557600080fd5b5061035e610e38565b604051808273ffffffffffffffffffffffffffffffffffffffff1673ffffffffffffffffffffffffffffffffffffffff16815260200191505060405180910390f35b3480156103ac57600080fd5b506103eb600480360381019080803573ffffffffffffffffffffffffffffffffffffffff16906020019092919080359060200190929190505050610e5d565b6040518080602001828103825283818151815260200191508051906020019060200280838360005b8381101561042e578082015181840152602081019050610413565b505050509050019250505060405180910390f35b34801561044e57600080fd5b50610497600480360381019080803573ffffffffffffffffffffffffffffffffffffffff16906020019092919080359060200190929190803590602001909291905050506110d8565b604051808573ffffffffffffffffffffffffffffffffffffffff1673ffffffffffffffffffffffffffffffffffffffff1681526020018481526020018381526020018260ff1660ff16815260200194505050505060405180910390f35b34801561050057600080fd5b5061053f600480360381019080803573ffffffffffffffffffffffffffffffffffffffff169060200190929190803590602001909291905050506111f3565b005b34801561054d57600080fd5b506105dc600480360381019080803573ffffffffffffffffffffffffffffffffffffffff1690602001909291908035906020019092919080359060200190929190803590602001908201803590602001908080601f0160208091040260200160405190810160405280939291908181526020018383808284378201915050505050509192919290505050611360565b6040518082815260200191505060405180910390f35b3480156105fe57600080fd5b50610607611428565b6040518080602001828103825283818151815260200191508051906020019060200280838360005b8381101561064a57808201518184015260208101905061062f565b505050509050019250505060405180910390f35b6000600260008373ffffffffffffffffffffffffffffffffffffffff1673ffffffffffffffffffffffffffffffffffffffff168152602001908152602001600020805490509050919050565b60008060016006858786604051602001808481526020018373ffffffffffffffffffffffffffffffffffffffff1673ffffffffffffffffffffffffffffffffffffffff166c0100000000000000000000000002815260140182815260200193505050506040516020818303038152906040526040518082805190602001908083835b602083101515610751578051825260208201915060208101905060208303925061072c565b6001836020036101000a03801982511681845116808217855250505050505090500191505060405180910390206001900481151561078b57fe5b06019050809150509392505050565b6000600260008473ffffffffffffffffffffffffffffffffffffffff1673ffffffffffffffffffffffffffffffffffffffff168152602001908152602001600020828154811015156107e857fe5b906000526020600020906003020160000154905092915050565b60026020528160005260406000208181548110151561081d57fe5b906000526020600020906003020160009150915050806000015490806001015490806002018054600181600116156101000203166002900480601f0160208091040260200160405190810160405280929190818152602001828054600181600116156101000203166002900480156108d65780601f106108ab576101008083540402835291602001916108d6565b820191906000526020600020905b8154815290600101906020018083116108b957829003601f168201915b5050505050905083565b60018190806001815401808255809150509060018203906000526020600020016000909192909190916101000a81548173ffffffffffffffffffffffffffffffffffffffff021916908373ffffffffffffffffffffffffffffffffffffffff1602179055505050565b600080600080670de0b6b3a76400003414151561096557600080fd5b429350600360008873ffffffffffffffffffffffffffffffffffffffff1673ffffffffffffffffffffffffffffffffffffffff16815260200190815260200160002060008781526020019081526020016000209250600083805490501415610ade576109d187876114b6565b915082828154811015156109e157fe5b906000526020600020906002020190506080604051908101604052803373ffffffffffffffffffffffffffffffffffffffff168152602001858152602001868152602001600060ff168152508160000160008360010154815260200190815260200160002060008201518160000160006101000a81548173ffffffffffffffffffffffffffffffffffffffff021916908373ffffffffffffffffffffffffffffffffffffffff160217905550602082015181600101556040820151816002015560608201518160030160006101000a81548160ff021916908360ff1602179055509050508060010160008154809291906001019190505550610de1565b826001848054905003815481101515610af357fe5b90600052602060002090600202019050600260008873ffffffffffffffffffffffffffffffffffffffff1673ffffffffffffffffffffffffffffffffffffffff16815260200190815260200160002086815481101515610b4f57fe5b90600052602060002090600302016000015481600101541015610ccd576080604051908101604052803373ffffffffffffffffffffffffffffffffffffffff168152602001858152602001868152602001600060ff168152508160000160008360010154815260200190815260200160002060008201518160000160006101000a81548173ffffffffffffffffffffffffffffffffffffffff021916908373ffffffffffffffffffffffffffffffffffffffff160217905550602082015181600101556040820151816002015560608201518160030160006101000a81548160ff021916908360ff1602179055509050508060010160008154809291906001019190505550600260008873ffffffffffffffffffffffffffffffffffffffff1673ffffffffffffffffffffffffffffffffffffffff16815260200190815260200160002086815481101515610ca057fe5b90600052602060002090600302016000015481600101541415610cc857610cc787876111f3565b5b610de0565b610cd787876114b6565b91508282815481101515610ce757fe5b906000526020600020906002020190506080604051908101604052803373ffffffffffffffffffffffffffffffffffffffff168152602001858152602001868152602001600060ff168152508160000160008360010154815260200190815260200160002060008201518160000160006101000a81548173ffffffffffffffffffffffffffffffffffffffff021916908373ffffffffffffffffffffffffffffffffffffffff160217905550602082015181600101556040820151816002015560608201518160030160006101000a81548160ff021916908360ff16021790555090505080600101600081548092919060010191905055505b5b3373ffffffffffffffffffffffffffffffffffffffff167f9a277d1dba07f59c27cda9cca1f52ed3404330d9fd435911f9cb76ad770738c6856040518082815260200191505060405180910390a250505050505050565b6000809054906101000a900473ffffffffffffffffffffffffffffffffffffffff1681565b606060008060008060006060600360008a73ffffffffffffffffffffffffffffffffffffffff1673ffffffffffffffffffffffffffffffffffffffff16815260200190815260200160002060008981526020019081526020016000209550856001878054905003815481101515610ed057fe5b9060005260206000209060020201945060019350600092505b8460010154831015610f5e578385600001600085815260200190815260200160002060030160009054906101000a900460ff1660ff161115610f515784600001600084815260200190815260200160002060030160009054906101000a900460ff1660ff1693505b8280600101935050610ee9565b60009150600092505b8460010154831015610fb9578385600001600085815260200190815260200160002060030160009054906101000a900460ff1660ff161415610fac5781806001019250505b8280600101935050610f67565b81604051908082528060200260200182016040528015610fe85781602001602082028038833980820191505090505b50905060009150600092505b84600101548310156110c9578385600001600085815260200190815260200160002060030160009054906101000a900460ff1660ff1614156110bc5784600001600084815260200190815260200160002060000160009054906101000a900473ffffffffffffffffffffffffffffffffffffffff16818381518110151561107757fe5b9060200190602002019073ffffffffffffffffffffffffffffffffffffffff16908173ffffffffffffffffffffffffffffffffffffffff168152505081806001019250505b8280600101935050610ff4565b80965050505050505092915050565b6000806000806000806000600360008b73ffffffffffffffffffffffffffffffffffffffff1673ffffffffffffffffffffffffffffffffffffffff16815260200190815260200160002060008a815260200190815260200160002092506000838054905014156111615760008060008083935082925081915080905096509650965096506111e7565b82600184805490500381548110151561117657fe5b9060005260206000209060020201915081600001600089815260200190815260200160002090508060000160009054906101000a900473ffffffffffffffffffffffffffffffffffffffff16816001015482600201548360030160009054906101000a900460ff1696509650965096505b50505093509350935093565b60008060008060009350600360008773ffffffffffffffffffffffffffffffffffffffff1673ffffffffffffffffffffffffffffffffffffffff1681526020019081526020016000206000868152602001908152602001600020925082600184805490500381548110151561126457fe5b90600052602060002090600202019150600090505b81600101548110156112af5781600001600082815260200190815260200160002060020154840193508080600101915050611279565b600090505b81600101548110156113585761131b82600001600083815260200190815260200160002060000160009054906101000a900473ffffffffffffffffffffffffffffffffffffffff1683600001600084815260200190815260200160002060010154866106aa565b82600001600083815260200190815260200160002060030160006101000a81548160ff021916908360ff16021790555080806001019150506112b4565b505050505050565b60006001600260008773ffffffffffffffffffffffffffffffffffffffff1673ffffffffffffffffffffffffffffffffffffffff16815260200190815260200160002060606040519081016040528087815260200186815260200185815250908060018154018082558091505090600182039060005260206000209060030201600090919290919091506000820151816000015560208201518160010155604082015181600201908051906020019061141a92919061155b565b505050039050949350505050565b606060018054806020026020016040519081016040528092919081815260200182805480156114ac57602002820191906000526020600020905b8160009054906101000a900473ffffffffffffffffffffffffffffffffffffffff1673ffffffffffffffffffffffffffffffffffffffff1681526020019060010190808311611462575b5050505050905090565b60006001600360008573ffffffffffffffffffffffffffffffffffffffff1673ffffffffffffffffffffffffffffffffffffffff168152602001908152602001600020600084815260200190815260200160002060206040519081016040528060008152509080600181540180825580915050906001820390600052602060002090600202016000909192909190915060008201518160010155505003905092915050565b828054600181600116156101000203166002900490600052602060002090601f016020900481019282601f1061159c57805160ff19168380011785556115ca565b828001600101855582156115ca579182015b828111156115c95782518255916020019190600101906115ae565b5b5090506115d791906115db565b5090565b6115fd91905b808211156115f95760008160009055506001016115e1565b5090565b905600a165627a7a723058209888287db196be80a519953b3c6ff343a5c91d915598600bb41548666773c1830029",
  "source": "pragma solidity ^0.4.18;\n\ncontract ShareDiceGame {\n    address public owner;//合约所有者\n\n    event JoinSuccess(\n        address indexed _from,\n        uint _rollTime\n    );\n    //单个用户roll的结果\n    struct DiceResult {\n        address player;//玩家地址作为随机因素\n        uint rollTime;//产生的时间作为随机因素\n        uint shakeSeed;//用户摇骰子的次数作为随机因素\n        uint8 result;//最终随机出来的结果\n    }\n    //多人摇骰子的结果组成赛果\n    struct GameResult {\n        mapping(uint=>DiceResult) diceResults;\n        uint playerCount;\n    }\n    //房间\n    struct Room{\n        uint playerLimit; //人数上限\n        uint stake;//下注额度\n        string ptype; //玩法，目前固定就是拼大小\n    }\n    \n    address[] internal agents;//记录哪些人是代理\n    mapping(address=>Room[]) public agentToRooms;//记录谁开的房间,这是代理一级，进行线下推广的依据\n    mapping(address=>mapping(uint=>GameResult[])) internal gameResults;//记录每个房间，每一局博弈的骰子情况\n\n    constructor() public {\n        owner = msg.sender;\n        //demo 临时加入的代理\n        agents.push(0x2932b7A2355D6fecc4b5c0B6BD44cC31df247a2e);\n        agents.push(0x2191eF87E392377ec08E7c08Eb105Ef5448eCED5);\n        agents.push(0x0F4F2Ac550A1b4e2280d04c21cEa7EBD822934b5);\n        createRoom(agents[0],2,1,'ou');\n        createRoom(agents[0],2,1,'ou');\n        createRoom(agents[0],2,1,'ou');\n        createRoom(agents[1],2,1,'ou');\n        createRoom(agents[1],3,1,'ou');\n        createRoom(agents[1],3,1,'ou');\n        createRoom(agents[1],3,1,'ou');\n        createRoom(agents[2],4,1,'ou');\n        createRoom(agents[2],4,1,'ou');\n        createRoom(agents[2],10,1,'ou');\n        createRoom(agents[2],10,1,'ou');\n        createRoom(agents[2],10,1,'ou');\n        createRoom(agents[2],10,1,'ou');\n        createRoom(agents[2],10,1,'ou');\n\n\n    }\n    //添加代理\n    function addAgent(address agent) public {\n        agents.push(agent);\n    }\n    //获取代理\n    function getAgents() public view returns(address[]){\n        return agents;\n    }\n\n    //创建房间\n    function createRoom(address agent,uint playerLimit,uint stake,string ptype) public returns(uint) {\n        return agentToRooms[agent].push(Room(playerLimit,stake,ptype)) - 1;\n    }\n    //获取某个地址拥有的房间数量,用于前端展示遍历的依据\n    function getAgentRoomsCount(address agent) public view returns(uint){\n        return agentToRooms[agent].length;\n    }\n\n    //获取某个房间的人数限制\n    function getRoomPlayerLimit(address agent,uint roomNum) public view returns(uint){\n        return agentToRooms[agent][roomNum].playerLimit;\n    }\n\n    //在一个房间新开一局游戏\n    function newGameInRoom(address agent,uint roomNum) internal returns(uint){\n        return gameResults[agent][roomNum].push(GameResult({playerCount:0}))-1;\n    }\n\n    //玩家准备开始游戏\n    function readyPlay(address agent,uint roomNum,uint shakeSeed) public payable{\n        require(msg.value == 1 ether);\n        uint rollTime=now;\n        GameResult[] storage roomGameRs=gameResults[agent][roomNum];\n        if(roomGameRs.length==0){\n            uint gnum=newGameInRoom(agent,roomNum);\n            GameResult storage gr=roomGameRs[gnum];\n            gr.diceResults[gr.playerCount]=DiceResult(msg.sender,rollTime,shakeSeed,0);\n            gr.playerCount++;\n        }else{\n            gr=roomGameRs[roomGameRs.length-1];\n            if(gr.playerCount<agentToRooms[agent][roomNum].playerLimit){\n                gr.diceResults[gr.playerCount]=DiceResult(msg.sender,rollTime,shakeSeed,0);\n                gr.playerCount++;\n                if(gr.playerCount==agentToRooms[agent][roomNum].playerLimit){\n                    //最后一个加入的玩家触发开始\n                    roll(agent,roomNum);\n                }\n            }else{\n                gnum=newGameInRoom(agent,roomNum);\n                gr=roomGameRs[gnum];\n                gr.diceResults[gr.playerCount]=DiceResult(msg.sender,rollTime,shakeSeed,0);\n                gr.playerCount++;\n            }\n        }\n        emit JoinSuccess(msg.sender,rollTime);\n    }\n\n    //生成随机骰子的点数\n    function randDiceNum(address player,uint rollTime,uint shakeTotalSeed) public pure returns(uint8) {\n        uint result=uint(keccak256(abi.encodePacked(rollTime, player, shakeTotalSeed))) % 6 + 1;\n        return uint8(result);\n    }\n\n    //进行游戏\n    function roll(address agent,uint roomNum) public {\n        uint shakeTotal=0;\n        GameResult[] storage roomGameRs=gameResults[agent][roomNum];\n        GameResult storage gr=roomGameRs[roomGameRs.length-1];\n        uint i;\n        for (i=0; i < gr.playerCount; i++) {\n            shakeTotal+=gr.diceResults[i].shakeSeed;\n        }\n        for (i=0; i < gr.playerCount; i++) {\n            gr.diceResults[i].result=randDiceNum(gr.diceResults[i].player,gr.diceResults[i].rollTime,shakeTotal);\n        }\n    }\n\n    //查询最近一局的某个人的点数\n    function getLastGameResult(address agent,uint roomNum,uint idx) public view returns(address,uint,uint,uint8) {\n        GameResult[] storage roomGameRs=gameResults[agent][roomNum];\n        if(roomGameRs.length==0){\n            return (0,0,0,0);\n        }else{\n            GameResult storage gr=roomGameRs[roomGameRs.length-1];\n            DiceResult storage dr=gr.diceResults[idx];\n            return (dr.player, dr.rollTime, dr.shakeSeed,dr.result);\n        }\n    }\n\n    //判断输赢\n    function judge(address agent,uint roomNum) public view returns(address[]){\n        GameResult[] storage roomGameRs=gameResults[agent][roomNum];\n        GameResult storage gr=roomGameRs[roomGameRs.length-1];\n        uint points=1;\n        uint i;\n        for (i=0; i < gr.playerCount; i++) {\n            if(gr.diceResults[i].result>points){\n                points=gr.diceResults[i].result;\n            }\n        }\n        uint wi=0;\n        for (i=0; i < gr.playerCount; i++) {\n            if(gr.diceResults[i].result==points){\n                wi++;\n            }\n        }\n        address[] memory winers=new address[](wi);\n        wi=0;\n        for (i=0; i < gr.playerCount; i++) {\n            if(gr.diceResults[i].result==points){\n                winers[wi]=gr.diceResults[i].player;\n                wi++;\n            }\n        }\n        return winers;\n    }\n}\n",
  "sourcePath": "/Users/sky/Workplace/ShareDice/contracts/ShareDiceGame.sol",
  "compiler": {
    "name": "solc",
    "version": "0.4.24+commit.e67f0147.Emscripten.clang"
  },
  "schemaVersion": "2.0.1",
  "updatedAt": "2018-09-05T07:35:38.940Z"
}